:100000000C94D9000C94581E0C94851E0C94DC148E
:100010000C94B7140C9492140C9415030C940101D5
:100020000C9401010C9401010C9401010C94010148
:100030000C9401010C9401010C9401010C94010138
:100040000C94C11E0C9401010C94701B0C94BE1BEB
:100050000C9401010C9401010C9401010C94010118
:100060000C9401010C940101010E230211041502EC
:10007000FFFFAF010000000003F103484230446578
:100080006661756C7440060000ABCDEF636E6C0961
:100090007049647809736C6350747209736C6345BA
:1000A0006E640970687941646472097068794C659E
:1000B0006E096C69737409706565720A0020627953
:1000C00074650A000A50656572204461746162615A
:1000D00073652C2073697A653A2000636E6C096C35
:1000E000737409736C6350747209736C63456E6446
:1000F0000970687941646472097068794C656E0AA8
:100100000020627974650A000A4465766963652097
:10011000636F6E6669672C2073697A653A20000008
:100120002E012E0206030D04E905CA063D070C0B3D
:10013000060D210E650F6A10C811931203153416AF
:10014000011730181819161B432156250026112DAA
:10015000353EC300000000240027002A00000000F4
:1001600000250028002B00000000002300260029A5
:100170000004040404040404040202020202020350
:10018000030303030301020408102040800102045A
:1001900008102001020408102000000007000201DE
:1001A00000000304060000000000000000009F01A2
:1001B000A31C11241FBECFEFD8E0DEBFCDBF12E0DD
:1001C000A0E0B1E0E8ECF1E402C005900D92AC3C97
:1001D000B107D9F716E0ACECB2E001C01D92AB3626
:1001E000B107E1F711E0C2EBD1E004C02297FE01B4
:1001F0000E94A720CE3AD107C9F70E94B21E0C94E4
:10020000E2200C940000FB01DC0104C08D910590FC
:10021000801921F441505040C8F7881B990B08956C
:10022000FB01DC0102C005900D9241505040D8F70F
:100230000895FC014150504030F001900616D1F76E
:100240003197CF010895882799270895FB01DC0194
:1002500004C08D910190801921F441505040C8F79D
:10026000881B990B0895FB01DC0102C001900D92DF
:1002700041505040D8F70895A0E0B0E0E2E4F1E04A
:100280000C94B5207C01EB018A01690109C0CE0103
:100290002196F6010995F70181937F0101501040E5
:1002A00001151105A1F7CDB7DEB7E8E00C94D12018
:1002B000DF92EF92FF920F931F937B018C01FB0162
:1002C0000995D82EC8010196F7010995982F8D2D13
:1002D0001F910F91FF90EF90DF900895A0E0B0E0A4
:1002E000E4E7F1E00C94B520EC017B018A0169019F
:1002F00009C0CE012196F70161917F01F6010995B0
:100300000150104001151105A1F7CDB7DEB7E8E0A7
:100310000C94D120DF92EF92FF920F931F93D72E70
:100320007A018C01FA010995C80101966D2DF7013A
:1003300009951F910F91FF90EF90DF9008958CEC3D
:1003400092E068E670E043E951E00E9424030895DA
:10035000AB01BC018CEC92E00E94710F08952F92CA
:100360003F924F925F926F927F928F929F92AF9245
:10037000BF92CF92DF92EF92FF920F931F93A5EF60
:100380006A2EA3E07A2EFBE24F2EF2E05F2EE8EA1F
:100390002E2EE1E03E2EC30160E041E028E000E0C7
:1003A00010E078E8E72E73E1F72E58E8C52E53E108
:1003B000D52E520141010E9477168091C1048F70A1
:1003C00090E024E630E0829F8001839F100D929F91
:1003D000100D11248091BF0482958F7090E0829F50
:1003E000F001839FF00D929FF00D1124E45DFE4F0C
:1003F000C3014C9661E046E02EE07F0138EEC32E4B
:1004000033E0D32E0E9477161F910F91FF90EF904B
:10041000DF90CF90BF90AF909F908F907F906F9024
:100420005F904F903F902F9008951F93182F8CEC62
:1004300092E00E94930A112321F48CEC92E00E9436
:10044000BA121F910895682F8CEC92E040E020E0F2
:100450000E94FF0A0895FF920F931F93082F162FF3
:10046000F42E8CE396E060E071E00E941F1E8CE3A6
:1004700096E0602F4AE050E00E94BA1D8CE396E0BF
:1004800063E071E00E941F1E8CE396E0612F4AE05A
:1004900050E00E94BA1D8CE396E068E071E00E9493
:1004A0001F1E8CE396E06F2D4AE050E00E94BA1DBB
:1004B0008CE396E06AE00E94231D002399F5112346
:1004C00029F48CEC92E00E9474122CC0123071F46A
:1004D00080ED92E062E044E020E00E942D186CEF95
:1004E0007AE380E090E00E94A8011CC0812F875031
:1004F000823028F480ED92E062E040E010C01530D8
:1005000089F48CEC92E00E94BA1268EB7BE080E008
:1005100090E00E94A80180ED92E062E041E020E0DE
:100520000E942D18802F8150863068F56CE474E0AD
:1005300080E090E00E947E1720E08E52994008F4FF
:1005400021E08091BF0482958F7029F08F2D81501A
:10055000863008F40F2D123028F48CEC92E0602FD6
:1005600040E00FC0812F8250823028F48CEC92E062
:10057000602F41E006C0143031F48CEC92E0602F23
:1005800042E00E944E031F910F91FF9008950F9338
:100590001F930CEC12E0C8010E94D413C80104960A
:1005A0000E94531885EF93E00E9465161F910F91EA
:1005B0000895EF92FF920F931F930CEC12E0C80185
:1005C0000E940C14B4E0EB2EF12CE00EF11EC701DA
:1005D00064E045E028EA31E00E941D19C80164E0AA
:1005E0000E94F20EC8010E942D03C70162E043E0A1
:1005F00023E00E942D181F910F91FF90EF90089516
:100600009C01F999FECF32BD21BDF89A80B50895BD
:100610009C01F999FECF1FBA32BD21BD60BD0FB656
:10062000F894FA9AF99A0FBE08951F920F920FB696
:100630000F9211248F9381E08093D7048F910F90B4
:100640000FBE0F901F901895FC01E052FF4F718371
:100650006083F996518340830895FC01E052FF4F77
:1006600040815181FA0184914F5F5F4FFA0194916B
:10067000415050409A012E5F3F4FF901A591B4912E
:100680008F3F49F49F3F39F480E068ED74E040E02B
:10069000FD01099508954C5F5F4FE4CFCF93DF9341
:1006A000EC01522F673008F079C0C05FDE4F8881BF
:1006B000C051D140882331F0423009F06FC0C15F92
:1006C000DE4F5DC0862F90E0FC01EE0FFF1FEE0FA6
:1006D000FF1FE80FF91FEE57FD4F818190E09C014D
:1006E00073E0220F331F7A95E1F7281B390BF901CC
:1006F000EA55FD4FE081D901A955BD4F90E008C0F2
:100700008C911396843019F49E17E0F147C09F5FD7
:100710009E17B0F343C084E8C85FDE4F8883C8509B
:10072000D140442311F480E001C080E4CF50DF4F7A
:10073000579555275795562B852B8883C15FD040F9
:10074000DE01AE50BF4FC151DF4F8881CF5ED04038
:10075000282F30E0FE01E20FF31FE85FFE4F80819B
:100760008C93413039F0FE01E20FF31FE85FFE4F3A
:100770008F5F8083CB5FDE4F82E088832B9681E0A2
:1007800088830CC0C151DF4F699380E48883C05FC8
:10079000D040413009F4BFCF84EABECFDF91CF9182
:1007A000089581E08093810508950F931F93CF935F
:1007B000DF938C0100521F4FF801208131810358D3
:1007C0001040F80150810D551040E801CC59DF4F21
:1007D000F90144912F5F3F4FF9017491215030404E
:1007E000C9010296FC01A591B491513069F44130E0
:1007F00081F5B8016B597F4F065A1F4FF8014081B0
:100800004A50065F1F4F11C05131A9F4413109F51B
:100810008881871701F5B8016A597F4F065A1F4F23
:10082000F80140814B50055F1F4FF8018081FD01A9
:10083000099581E014C0523160F0541751F4065A02
:100840001F4FF80140814950862F065F1F4FB801A6
:10085000EECF442319F02C5F3F4FBACF80E0DF91F9
:10086000CF911F910F91089560E00E94D5030895E4
:10087000DB0111969C91119786E7982711969C931E
:10088000119712965C91129742E008C0FD01E20FA9
:10089000F31F94528081982790834F5F8C91242F6F
:1008A00030E0481798F3FD01E20FF31F80818527A0
:1008B00080830895DB0111969C91119786E7892723
:1008C00011968C93119742E009C0FD01E20FF31FCE
:1008D00080819452982790834F5F982F8C91242F7A
:1008E00030E0481790F3FD01E20FF31F808112966C
:1008F0009C918927808308950F931F93CF93DF9353
:100900008B01EC01CD5EDE4FCE0168ED74E043E07B
:1009100050E00E942601009751F0CE01B80143E05B
:1009200050E00E9426019C0180E0232B09F481E025
:10093000DF91CF911F910F910895CF92DF92EF92A7
:10094000FF920F931F93CF93DF936B0100E010E0B2
:100950001AC0CE018F0D911D880F991F880F991F06
:1009600084529B4FB60143E050E00E94260100975D
:10097000B9F0F394FE1468F30F5F1F4F06301105B2
:1009800011F480E00EC0F801E355FE4FE080FF2433
:10099000E801CC0FDD1FC00FD11FCC0FDD1FEACF48
:1009A00081E0DF91CF911F910F91FF90EF90DF9049
:1009B000CF9008950F931F93CF93DF93615070E012
:1009C000FB01E355FE4F008110E0EB01CC0FDD1F72
:1009D000C60FD71FCC0FDD1F12C0CE01810F911D96
:1009E000880F991F880F991F84529B4F68ED74E000
:1009F00044E050E00E942601009721F01F5F10178D
:100A000060F31FEF812FDF91CF911F910F91089518
:100A1000CF92DF92EF92FF920F931F93DF93CF93CA
:100A200000D00F92CDB7DEB76A01DE011196E3EB7D
:100A3000F1E023E001900D922150E1F7673088F555
:100A40006150862F90E0FC01E355FE4FE080FF24CB
:100A50008C01000F111F080F191F000F111F11C06B
:100A6000C8018F0D911D880F991F880F991F8452FF
:100A70009B4FB60144E050E00E942601009799F098
:100A8000F394FE1468F3C601BE016F5F7F4F43E02D
:100A900050E00E942601009721F4F601F380FE1435
:100AA00010F0FF24FA948F2D0F900F900F90CF919C
:100AB000DF911F910F91FF90EF90DF90CF900895FD
:100AC000FF920F931F93CF93DF938C01F62EEA01D1
:100AD0000E9408058F3FB1F5C8016F2D0E94DA040E
:100AE000482F8F3F79F1095E1E4F8F2D90E00197BF
:100AF0009C01220F331F280F391F220F331F240F91
:100B0000311D220F331F220F331F2E5F3F4FF8017D
:100B100080819181820F931FBE0144E050E028E064
:100B200033E00E946E01F801608171816E5F7F4F3A
:100B30008CED94E040E950E020E033E00E943C017D
:100B400081E001C080E0DF91CF911F910F91FF9074
:100B50000895DF92EF92FF920F931F93CF93DF934D
:100B6000F62ED42EF901E801208131814281538192
:100B700066E06F1508F49FC0211531054105510548
:100B800021F422E02D1508F496C0FF2019F4DD2091
:100B900069F091C062E06D1548F46F2DAF010E94BD
:100BA0000805A82F8F3F09F486C001C0A0E06F2D73
:100BB00070E0FB01EE0FFF1FEE0FFF1FE60FF71FA8
:100BC000EE57FD4F8181082F10E0C80133E0880FF8
:100BD000991F3A95E1F7801B910BFC01EA55FD4FF7
:100BE0002081FC01E955FD4F90E0EE24FF240BC06D
:100BF00080818D1519F4921748F05DC08181E80E4F
:100C0000F11C9F5F3396921798F355C0492F50E01F
:100C1000CA010196FC01EE0FFF1FE80FF91F9801B2
:100C200093E0220F331F9A95E1F7201B310BE20F5F
:100C3000F31FEA55FD4F80818A17E8F1FA01EE0FA4
:100C4000FF1FE40FF51FE20FF31FEA55FD4F22814E
:100C5000A29FA02D1124FB01EE0FFF1FEE0FFF1F1F
:100C6000E60FF71FEE57FD4F8481A80FAE0DA88346
:100C7000B0E0AA0FBB1FAA0FBB1FA854BE4F8D9197
:100C80009C919B838A8329831C8220E00FC0E8818A
:100C9000F0E0E20FF11DEE0FFF1FEE0FFF1FEA5411
:100CA000FE4F8C819181890F8C832F5F898128175A
:100CB00070F381E001C080E0DF91CF911F910F912F
:100CC000FF90EF90DF900895DF92EF92FF920F93E5
:100CD0001F93CF93DF937C01F901E80190917B058D
:100CE00080917205891720F410927B0580E098C0EE
:100CF0000081118122813381009373051093740563
:100D0000209375053093760580917D05861789F4CB
:100D100080917C05841769F480917705909178051E
:100D2000A0917905B0917A0580179107A207B307C2
:100D300011F010927B0560937D0540937C05009334
:100D40007705109378052093790530937A05D09034
:100D50007B05DD2089F4C7019F010EE615E00E94A6
:100D6000A905882311F48FEF5BC080916E059091E7
:100D70006F05890F80936F0500916E0560E070E04C
:100D800087E191E0E80EF91E35C0783008F037C0F1
:100D9000E02FF0E0EE0FFF1FEE0FFF1FAF014A54F0
:100DA0005E4FDA011C91D7012D913C912E563F4F99
:100DB000E854FE4F80819181280F391FFA019181FB
:100DC000A90113C06F5FD61658F4FE011193F9996B
:100DD000FECF7F5F52BD41BDF89A80B5EF01899388
:100DE000783038F41F5F4F5F5F4F842F821B891765
:100DF00048F30F5F80916F05081708F4C6CF972F4F
:100E000060937B0580917205681741F4783030F467
:100E1000188219826F5F60937B059F5F892F880F0F
:100E2000DF91CF911F910F91FF90EF90DF90089588
:100E3000DF92EF92FF920F931F93DF93CF9300D037
:100E400000D00F92CDB7DEB77C01D62E9A0143E0D9
:100E50008E010F5F1F4F0E94A9058823E9F0ED2D39
:100E6000F0E0EE0FFF1FEE0DFF1DE55EFE4F87E188
:100E700091E0E80EF91ED7016D917C916E567F4F7F
:100E80008B819C81680F791F4D818081918150E019
:100E900020E033E00E943C010F900F900F900F90E4
:100EA0000F90CF91DF911F910F91FF90EF90DF9006
:100EB00008952F923F924F925F926F927F929F92EE
:100EC000AF92BF92CF92DF92EF92FF920F931F9358
:100ED000DF93CF93CDB7DEB729970FB6F894DEBF77
:100EE0000FBECDBF7C018FEF89838A838B831C82E9
:100EF000C70160E040E028ED34E08E010B5F1F4F3A
:100F00000E94A9058701095E1E4FD8016D917C9151
:100F10006E567F4F8F819885680F791F4985C7016D
:100F20008F5E9E4F50E020E033E00E943C01E9E1FB
:100F3000F1E0EE0EFF1ED7016D907C90E7EEFEEF24
:100F4000EE0EFF1E9BE1C92E91E0D92ECE0CDF1CC8
:100F50009924AA241E010894211C311C28013DC09B
:100F6000C7016A2D4B2D91018E010B5F1F4F0E940F
:100F7000A905882331F1F3E0BF1659F4E92DF0E01B
:100F8000EE0FFF1FE60DF71D80819181D6018D9335
:100F90009C93E92DF0E0EE0FFF1FE60DF71DD20147
:100FA0006D917C916E567F4F8F819885680F791F68
:100FB00049858081918150E020E033E00E943C012E
:100FC0009394B394B8E0BB1659F6A394E2E0F0E032
:100FD000CE0EDF1EF7E0AF1611F0BB24C1CF29966D
:100FE0000FB6F894DEBF0FBECDBFCF91DF911F913A
:100FF0000F91FF90EF90DF90CF90BF90AF909F90B8
:101000007F906F905F904F903F902F900895BF9288
:10101000CF92DF92EF92FF920F931F93CF93DF93C4
:101020006B01CB0168ED74E044E050E00E942601C2
:10103000009759F1C0E0D0E01AC0C8018F0D911D92
:10104000880F991F880F991F84529B4FB60144E067
:1010500050E00E942601009719F48B2D8F5F16C077
:10106000F394FE1450F32196C630D10571F0BC2ED6
:10107000FE01E355FE4FE080FF248E01000F111F9B
:101080000C0F1D1F000F111FECCF80E0DF91CF91DF
:101090001F910F91FF90EF90DF90CF90BF90089538
:1010A000CF93DF93E9016730F0F4E62FF0E0E455E9
:1010B000FE4F80814817B8F46150E6E06E9FF00162
:1010C0001124E40FF11DEE0FFF1FEE0FFF1FE4527E
:1010D000FB4F80819181A281B38188839983AA8308
:1010E000BB8381E001C080E0DF91CF910895CF9272
:1010F000DF92FF920F931F93DF93CF9300D000D026
:10110000CDB7DEB78C01F62E6A0186E0861710F4A3
:101110008FEF75C0FA0180819181A281B3818983AB
:101120009A83AB83BC83C801AE014F5F5F4F0E94BF
:101130000805482F8F3F19F1095E1E4F8F2D90E053
:1011400001979C01220F331F280F391F220F331FD5
:10115000240F311D220F331F220F331F2E5F3F4FED
:10116000F8018081918107511140820F931F68ED32
:1011700074E044E050E028E033E00E946E01F601A4
:1011800084818C83C8016F2DAE014F5F5F4F0E9439
:101190000805482F8F3F19F1095E1E4F8F2D90E0F3
:1011A00001979C01220F331F280F391F220F331F75
:1011B000240F311D220F331F220F331F2E5F3F4F8D
:1011C000F8018081918107511140820F931F68EDD2
:1011D00074E044E050E028E033E00E946E01095ED4
:1011E0001E4FF801608171816E5F7F4F8CED94E03E
:1011F00040E950E020E033E00E943C0181E00F90A4
:101200000F900F900F90CF91DF911F910F91FF9052
:10121000DF90CF900895AF92BF92CF92DF92FF926E
:101220000F931F93DF93CF9300D000D0CDB7DEB7DD
:101230006C01F62E8A0186E0861710F48FEF1BC032
:10124000FA0180819181A281B38189839A83AB83E2
:10125000BC83C6015E010894A11CB11CA5010E94BB
:101260006005F8014481442331F04C83C6016F2DA1
:10127000A5010E9460050F900F900F900F90CF91E5
:10128000DF911F910F91FF90DF90CF90BF90AF90B3
:101290000895CF92DF92FF920F931F93DF93CF9326
:1012A00000D000D0CDB7DEB78C01025A1F4FF80135
:1012B00080819181A281B38189839A83AB83BC832E
:1012C0000A5F1F4FF8018081045610408F708C8395
:1012D000C8016E010894C11CD11CB6010E94070808
:1012E000F82E882349F0C8016F2DA6010E94180727
:1012F000C8016F2D0E94D5030F900F900F900F9093
:10130000CF91DF911F910F91FF90DF90CF900895C3
:10131000CF93DF93EC01FC01EE51FF4FC55ADF4F35
:101320008881CB55D0408083FE01EA51FF4FCC59D4
:10133000DF4F8881C456D0408083FE01E951FF4FC2
:10134000C659DF4F8881CA56D0408083FE01E851DC
:10135000FF4FCA59DF4F88819981AA81BB81C65648
:10136000D04080839183A283B383DE01AD51BF4F10
:10137000FE01E25AFF4F83E001900D928150E1F7A8
:10138000C451DF4F82E08883229681E08883DF9119
:10139000CF910895CF93DF93DC01FC01EE51FF4F15
:1013A000A55ABF4F8C91AB55B0408083FD01EA51E7
:1013B000FF4FAC59BF4F8C91A456B0408083ED01D4
:1013C000CD51DF4FFD01E25AFF4F83E001900992BA
:1013D0008150E1F7A451BF4F81E08C9312968C931A
:1013E000DF91CF9108950F931F93CF93DF93EC017B
:1013F000888DFE01EC5AFF4F85FF02C083E001C0DB
:1014000081E08083888D90E0B4E095958795BA95CA
:10141000E1F78170C75ADF4F8883C955D040CE01AC
:101420004D966EE775E043E050E00E9426018E0184
:101430000D5A1F4F009789F49E01265A3F4FEE899F
:10144000F0E03196AE014A5E5F4FC901BA01AF01CB
:101450000E943301F801108203C081E0F80180830B
:10146000DF91CF911F910F910895CF92EF92FF924C
:101470000F931F93CF93DF93EC015C2D575F5E8B2F
:1014800059506F8B488F298FDC015A96EEE7F5E0B3
:1014900083E001900D928150E1F7DE015D96F80145
:1014A00083E001900D928150E1F79E01205E3F4F55
:1014B000E216F30631F0C901B701452F50E00E9452
:1014C0003301CE010E94F309DF91CF911F910F915B
:1014D000FF90EF90CF900895CF92EF92FF920F93ED
:1014E0001F93DF93CF930F92CDB7DEB7FC0180E857
:1014F00089838F01025A1F4FCF01E55AFF4F608148
:1015000040E822E07E010894E11CF11CCC24C39445
:101510000E94350A0F90CF91DF911F910F91FF909C
:10152000EF90CF900895CF92EF92FF920F931F9379
:10153000DF93CF930F92CDB7DEB7FC0119828C01F8
:10154000025A1F4FE55AFF4F608140E822E07E01BA
:101550000894E11CF11CCC24C3940E94350A0F901E
:10156000CF91DF911F910F91FF90EF90CF90089551
:10157000CF93DF93EC01C351DF4F1882CD5ED04093
:10158000CE010E945907CE010E942D03C45ADF4F9D
:101590008881CC55D04085FF03C0CE010E94930ABC
:1015A000DF91CF910895CF93DF93EC01CC59DF4FBA
:1015B00068812296AE010E9477082A978881CC55CF
:1015C000D04085FF03C0CE010E94930ADF91CF91E6
:1015D0000895CF93DF93EC01CC59DF4F68812296B9
:1015E000AE010E940B092A978881CC55D04085FF17
:1015F00003C0CE010E94930ADF91CF910895CF924C
:10160000EF92FF920F931F93CF93DF93EC01F62E8F
:10161000E42EC22E8C010D5E1E4FC80168ED74E0F1
:1016200043E050E00E942601009759F186E088A32C
:10163000F9A2EAA2CBA28A818CA3C35ADF4F888188
:10164000CD55D040813069F4CB59DF4F8881C556E4
:10165000D0408E3031F4C55ADF4F6881CB55D04031
:1016600007C0FE01EE5AFF4F60816F5F60836150DB
:10167000CE0144EA20E1A0967E0155E0C52E0E94ED
:10168000350ADF91CF911F910F91FF90EF90CF908E
:101690000895CF93DF93EC0160E00E94D503882387
:1016A00049F4CC59DF4F8CEC92E068814FEF20E099
:1016B0000E94FF0ADF91CF910895CF93DF93EC0151
:1016C000FC01EA51FF4FCC59DF4F8881C456D0400E
:1016D0008083FE01E851FF4FCA59DF4F888199810D
:1016E000AA81BB81C656D04080839183A283B383F5
:1016F000FE01E951FF4FC659DF4F88818083CD57E6
:10170000DF4F81E08883C159D0408881CC55D040DB
:1017100085FF03C0CE010E94930ADF91CF91089507
:10172000CF93DF93EA01673010F06FEF51C0615043
:10173000262F30E0F901E355FE4F708180916C0552
:10174000781720F410926C0560E042C080916D051E
:10175000681711F010926C0560936D0560E0A901A7
:10176000440F551F420F531F440F551F21C0FA014C
:10177000E20FF11DEE0FFF1FEE0FFF1FE452FB4FB4
:1017800080819181A281B3812F5F0097A105B1056E
:1017900069F020936C05FE01E60FF11D80839183B3
:1017A000A283B3836C5F603118F012C020936C0584
:1017B00020916C052717D8F2C60FD11D1882198207
:1017C0001A821B8280916C058F5F80936C056C5F21
:1017D000862FDF91CF9108952F923F924F925F9283
:1017E0006F927F928F929F92AF92BF92CF92DF9231
:1017F000EF92FF920F931F93DF93CF9300D000D00F
:1018000000D0CDB7DEB75C013801EE824DB65EB6D2
:101810008E010F5F1F4F0E94A905882309F468C03D
:101820008D812DB73EB7281B31090FB6F8943EBF06
:101830000FBE2DBFEDB6FEB60894E11CF11C698108
:1018400017017A81760FA70130E017C0E62FF0E08C
:10185000EE0FFF1FEE0FFF1FEA54FE4FA081918194
:10186000FA0120E004C0822F8A0F81932F5F29178D
:10187000D0F3390F490F511D6F5F671738F33323CA
:1018800009F436C0CD808B809C80DD2487E191E017
:10189000A80EB91E28C083010D0D111DF80160812D
:1018A000C10170E04C2D50E00E9419019C0100978D
:1018B000C1F0F50180819181F8016181F999FECF34
:1018C0001FBA8E569F4F280D391D2E193F09820FC2
:1018D000931F92BD81BD60BD0FB6F894FA9AF99A34
:1018E0000FBEF2E0DF0E2E81D216A8F281E001C019
:1018F00080E00FB6F8945EBE0FBE4DBE26960FB6C2
:10190000F894DEBF0FBECDBFCF91DF911F910F9135
:10191000FF90EF90DF90CF90BF90AF909F908F900F
:101920007F906F905F904F903F902F900895EF922F
:101930000F931F93CF93DF93EC01C351DF4F888147
:10194000CD5ED040882379F1CA51DF4F6881C258FB
:10195000D0408881C456D040681729F5FE01E9516E
:10196000FF4F9E0128513F4F8E010A591F4FC65A03
:10197000DF4F5881CA55D0405B50CE014081E52EE3
:101980000E94EC0B982FC45ADF4F8881CC55D04071
:1019900085FF09C0913021F4CE010E94930A03C053
:1019A000CE010E946C0ADF91CF911F910F91EF90B1
:1019B00008958F929F92AF92BF92CF92DF92EF9253
:1019C000FF920F931F93DF93CF93CDB7DEB7299785
:1019D0000FB6F894DEBF0FBECDBF5C018DB69EB6CC
:1019E00023E530E0A20EB31ED5018C91EDEAFFEFA6
:1019F000AE0EBF1E882309F047C1D501AA5FBE4FB6
:101A00002FEE30E0A20EB31EF501208141E15FEF21
:101A1000A40EB51EE22FF0E0E455FE4F9C918081AC
:101A2000981708F46AC087E091E0A80EB91ED501A6
:101A30008C91E9EFFEEFAE0EBF1E882361F5F50134
:101A4000EE5AFF4F60816F5F6083615028E031E0A4
:101A5000A20EB31ED5018C91E8EFFEEFAE0EBF1EB5
:101A600085FD02C042E801C042EAF501E051FF4FA6
:101A700085010D5E1E4FD501AF50BF4F55E0C52EFD
:101A800051E0D52ECA0CDB1CC50120817D01D60199
:101A9000CC900E94350AF501E85FFE4F908195FDDC
:101AA0001BC02FE031E0A20EB31ED5018C9121EFB7
:101AB0003EEFA20EB31E882379F046E051E0A40E5B
:101AC000B51ED5011D925D011C9229EF3EEFA20EBD
:101AD000B31E9062908311C046E051E0A40EB51E83
:101AE000D5011D925D011C92E8E0F0E0AE0EBF1E34
:101AF000D5011D92FD011082C7C04FEEE42EF12CDE
:101B0000EA0CFB1CF501EA5FFE4FC501D7016C91A1
:101B100040818E010F5F1F4F98010E945008C82E10
:101B2000C80168ED74E044E050E00E94260100978F
:101B300011F0CC2029F4F501EA5FFE4F8081A2C0AC
:101B4000C501F701608144E098018E010B5F1F4FD2
:101B50000E94A905882309F45BC0FDB6EEB689850D
:101B60002DB73EB7281B31090FB6F8943EBF0FBE04
:101B70002DBF0DB71EB70F5F1F4F6D81D8017E813E
:101B8000760FA80116C0E62FF0E0EE0FFF1FEE0F54
:101B9000FF1FEA54FE4F30819181FA0120E004C01A
:101BA000822F830F81932F5F2917D0F3490F511D87
:101BB0006F5F671740F34985CD0161E070E050E049
:101BC0000E9419019C010097D9F047E151E0A40E51
:101BD000B51ED5018D919C91E9EEFEEFAE0EBF1EB4
:101BE0004F815885F999FECF8E569F4F240F351F90
:101BF000201B310B820F931F92BD81BDF89A40B517
:101C00008F2D9E2D9C010FB6F8943EBF0FBE2DBFA9
:101C1000842F90E08170907024E0880F991F2A959E
:101C2000E1F728E031E0A20EB31ED5014C91E8EFB8
:101C3000FEEFAE0EBF1E482BF501EE5AFF4F60813E
:101C40006F5F60836150C50120EF30E0A20EB31ECC
:101C5000D5012C918E010F5F1F4F0894A11CB11C60
:101C60007501E4E1F0E0AE0EBF1ED501CC900E94FC
:101C7000350AE2E0F0E0AE0EBF1E81E0D5018C93A4
:101C8000F50182918F5F80830FB6F8949EBE0FBEE0
:101C90008DBE29960FB6F894DEBF0FBECDBFCF9193
:101CA000DF911F910F91FF90EF90DF90CF90BF9049
:101CB000AF909F908F900895CF93DF93EC0180E0D9
:101CC00090E060E073E00E9458018F5A9740C9F09D
:101CD00080E090E0F999FECF1FBA92BD81BD10BCA3
:101CE0000FB6F894FA9AF99A0FBE01968E3C9105B8
:101CF00089F780E090E06FEA77E048E053E00E94E7
:101D00008A01C95EDE4F68817981C751D1406E5F1B
:101D10007F4F8CED94E040E950E020E033E00E94FA
:101D20003C01CE010E945907DF91CF910895CF92D7
:101D3000EF92FF920F931F938C018A599F4F6BE78D
:101D400070E04AE050E00E940301892BE1F4E0E2F8
:101D5000EE2EF12CE00EF11EC70168E770E041E1C4
:101D600050E00E941001F801EE5AFF4F60816F5F52
:101D700060836150C80142EA20E0025A1F4F71E1BE
:101D8000C72E0E94350A1F910F91FF90EF90CF90C0
:101D90000895CF92EF92FF920F931F937C01DC0185
:101DA00090961C9281966BE770E04BE050E00E94A9
:101DB00010018701025A1F4FF701B096C7012BE5AA
:101DC00030E0E20EF31ED7016C9140E820E17F0184
:101DD000FBE0CF2E0E94350A1F910F91FF90EF90EC
:101DE000CF900895CF93DF93EC016230A1F0633080
:101DF00020F4613009F069C006C06330C9F1643075
:101E000009F063C048C0CC52DF4F6883C45DD04046
:101E100083B7817F2BC0CC52DF4F6883229688E93D
:101E20009AE38993999380ED97E0998388830E9440
:101E3000151F249666507F4F8F4F9F4F688379837D
:101E40008A839B8384B7877F84BF80916000886189
:101E50008093600084E08093600080E091E09A933A
:101E60008A93CA5DD04083B7817F846083BF32C0CC
:101E700084B7877F84BF8091600088618093600011
:101E800081E280936000C652DF4F8EEF9FE199831D
:101E90008883CA5DD040CC52DF4F6883229688E9A0
:101EA0009AE38993999380ED97E0998388830E94C0
:101EB000151F24966056704F8F4F9F4F688379830C
:101EC0008A839B83CC5DD040CECFCC52DF4F18822B
:101ED000C45DD040CB52DF4F81E08883DF91CF914A
:101EE0000895EF92FF920F931F93CF93DF93EC012E
:101EF0007A018B01CB52DF4F8881C55DD0408823AA
:101F000019F4CE010E941B1ACB52DF4F81E0888367
:101F10000E94151F27966E0D7F1D801F911F6883DD
:101F200079838A839B83DF91CF911F910F91FF90DB
:101F3000EF900895AF92BF92CF92DF92EF92FF920F
:101F40000F931F93CF93DF93EC01B4EDAB2EB12C25
:101F5000A80EB91EF5018081882309F423C1ACEDD8
:101F6000CA2ED12CCC0EDD1EF601E080F18002815C
:101F700013810E94151F6E157F058007910708F4D5
:101F800011C1CD5ADF4F8881C355D040882309F055
:101F900009C1F50180818230F1F58E010B521F4F8E
:101FA000F8018081882329F5CE010E941B1A88231D
:101FB000A1F00E94151FC852DF4F28813981C85DEA
:101FC000D04040E050E0260F371F481F591FF60150
:101FD000208331834283538307C00E94151FF6017B
:101FE0006083718382839383CB52DF4F81E0888348
:101FF000D9C0813081F4CE010E943C19F8011082D1
:102000000E94151F66507F4F8F4F9F4FF6016083D0
:10201000718382839383CC52DF4F8881C45DD0402B
:10202000833060F08E010B521F4FF80180818130A8
:1020300029F4CE010E943C19F80110828E010C5245
:102040001F4FF8018081823008F4ACC0CB52DF4FC3
:102050008881C55DD040882309F0A4C0CE010496D4
:1020600063E00E94E317F80180818250823028F4F7
:10207000809160008064809360008CE396E06EE065
:1020800071E00E941F1ECC52DF4F8CE396E0688106
:102090004AE050E00E94BA1D8CE396E061E271E0F4
:1020A0000E941F1E2896E880F9800A811B81CC5D62
:1020B000D0400E94151F20E030E06E157F0580079C
:1020C000910710F421E030E08CE396E0B9014AE09A
:1020D00050E00E940C1E8CE396E069E371E00E94E0
:1020E0001F1ECD5ADF4F8CE396E068814AE050E036
:1020F0000E94BA1D8CE396E06AE00E94231D62E311
:1021000070E080E090E00E94681F10927A00909149
:1021100064008FEF8093640083B7816083BF80E6A3
:1021200085BF80E485BF889583B78E7F83BFCF57F7
:10213000DF4F8881C45DD0408250823028F4809186
:1021400060008F7B80936000909364008091D7043F
:102150008130E9F41092D704209166063091670629
:102160004091680650916906C652DF4F8881998177
:10217000A0E0B0E0820F931FA41FB51F80936606F6
:1021800090936706A0936806B09369060BC0C85287
:10219000DF4F48815981C85DD04060E070E0CE01DA
:1021A0000E94710FDF91CF911F910F91FF90EF90DF
:1021B000DF90CF90BF90AF900895CF92EF92FF92B3
:1021C0000F931F93CF93DF93EC01CD5ADF4F88819C
:1021D000C355D040882309F05AC080ED92E061E0F9
:1021E00044E021E00E942D18C451DF4FF880CC5EFE
:1021F000D04081E0F81659F4FE01EA51FF4FAE01DC
:102200004F5D5F4FCE0160810E94900B14C0B2E021
:10221000FB16E9F5FE01EA51FF4FDE01A951BF4F60
:102220009E0128513F4F8E010F5D1F4FCE016081EF
:102230004C910E946406382F882351F4CE018E51B0
:102240009F4FFC018DE0DF011D928A95E9F71FC0C9
:10225000DE01AE51BF4F8F3F41F48DE01D928A9554
:10226000E9F7CE010E946C0A12C0F8A26C916F5F70
:102270006C936150FE01B0963F5FCE0140EA20E1D1
:10228000CD51DF4F8E017F01C32E0E94350ADF91B1
:10229000CF911F910F91FF90EF90CF9008950F93E2
:1022A0001F93CF93DF93EC018C010F591F4FC8018F
:1022B0006EE775E043E050E00E942601FE01EE5219
:1022C000FF4F009719F481E0808301C01082C8019C
:1022D00060E070E043E050E00E942601FE01ED5214
:1022E000FF4F009719F481E0808301C010828E01B6
:1022F000025A1F4FCE01B8010E947C04882309F0C6
:10230000E6C0CE01B8010E949D04882309F0DFC019
:10231000DAC0FE01E856FF4F8081806480838E0121
:10232000065A1F4FF801408150E04F5F5F4FCE01CA
:102330008A569F4FB8010E942601009719F4F801B0
:102340001082CDC0AE014A565F4FFE01E65AFF4FE4
:10235000208130E02F5F3F4FCA01BF01A9010E94D9
:102360003301CE52DF4F8881C25DD040882309F40B
:102370004FC0C45ADF4F8881CC55D04087FF48C03A
:10238000C35ADF4F8881CD55D040813009F040C01D
:10239000CB59DF4F8881C556D040813021F4CE0122
:1023A0000E94E90A35C0823021F4CE010E94D30A8E
:1023B0002FC0833021F4CE010E94CA0929C0843085
:1023C00021F4CE010E94880923C0853021F4CE017A
:1023D0000E945D0B1DC0863021F4CE010E94B80A18
:1023E00017C0883021F4CE010E94970C11C08930AB
:1023F00021F4CE010E94C90E0BC08A3021F4CE0117
:102400000E94970E05C08E3019F4CE010E94490B30
:10241000CE52DF4F8881C25DD040882321F1C45A5B
:10242000DF4F8881CC55D04087FF1DC0C35ADF4F96
:102430008881CD55D0408230B1F4CD5ADF4F18821B
:10244000C354DF4F8881C051D140813061F480EDA9
:1024500092E063E00E94E31780ED92E061E043E0E8
:1024600021E00E942D18CE52DF4F8881C25DD040FE
:10247000882389F0C45ADF4F8881CC55D04087FF2C
:102480000AC0C35ADF4F8881CD55D040813119F43D
:10249000CE010E943404CE52DF4F8881C25DD0400D
:1024A000882389F0C45ADF4F8881CC55D04087FFFC
:1024B0000AC0C35ADF4F8881CD55D040823118F011
:1024C000CE010E944909C65ADF4F188208C0C45A7B
:1024D000DF4F8881CC55D04086FD1BCF33CFDF91B5
:1024E000CF911F910F910895CF92EF92FF920F938A
:1024F0001F93CF93DF93EC0180ED92E062E043E025
:1025000020E00E942D18CC52DF4F8881C45DD0405E
:10251000823058F0CA52DF4F48815981C65DD040A1
:1025200060E070E0CE010E94710F40E2E42EF12CD9
:10253000EC0EFD1EC70168E770E041E150E00E942B
:102540001001FE01EE5AFF4F60816F5F60836150A2
:10255000CE0142EA20E0CD5EDE4F8E0131E1C32E96
:102560000E94350ADF91CF911F910F91FF90EF905C
:10257000CF9008950F931F938C01FC01E95EFE4FED
:102580008081918168ED74E042E050E028E033E022
:102590000E946E01C8010E945C0EC801049662E0B0
:1025A00044E025E00E942D181F910F910895AF92ED
:1025B000BF92CF92DF92EF92FF920F931F93CF9330
:1025C000DF93EC01E3E5CE2ED12CC80ED91ECC5AF8
:1025D000DF4FF60190818881C455D040891708F4F7
:1025E00072C075E5A72EB12CAC0EBD1EF501E080C2
:1025F000F180028113810E94151F6E157F058007EF
:10260000910708F460C08E010A5E1F4FCE01B80129
:102610000E94380480E00E94451EFE01E75AFF4FE9
:10262000CE01B80140810E94461A80E061ED73E05E
:1026300042E050E00E94221ECE01B8010E945A04DE
:10264000F60180818F5F80830E94151F64547D4F47
:102650008F4F9F4FF5016083718382839383CB52A9
:10266000DF4F81E088838A91C45DD0408823E9F000
:10267000C452DF4FE880F9800A811B810E94151F38
:10268000249728813981C85DD04040E050E0620F36
:10269000731F841F951FE616F7060807190728F40D
:1026A000CE01BA01A9010E94710FC05FDE4F88817F
:1026B000C051D140813039F480ED92E063E043E0D5
:1026C00021E00E942D18FE01ED5AFF4F9081CC5A57
:1026D000DF4F8881C455D040891758F4933048F4AF
:1026E0001082CB5ADF4F188219821A821B82C5557D
:1026F000D04063E5A62EB12CAC0EBD1ECC5ADF4FE8
:10270000F50190818881C455D040891748F555E579
:10271000C52ED12CCC0EDD1EF601E080F1800281A9
:1027200013810E94151F6E157F0580079107C0F069
:10273000F5011082F6011082118212821382C05FAD
:10274000DE4F8881813061F480ED92E063E00E9489
:10275000E31780ED92E062E042E021E00E942D1854
:10276000DF91CF911F910F91FF90EF90DF90CF906D
:10277000BF90AF90089580E00E94451E8CEC92E0DF
:1027800066E273E00E948C19882331F08CEC92E0B1
:1027900066E273E00E945A0480E061ED73E042E07B
:1027A00050E00E94221E0895CF93DF93EC018091A8
:1027B0008105882319F0CE010E94BB13C65ADF4F52
:1027C0008881CA55D040882319F0CE010E944F114C
:1027D000CD5ADF4F8881C355D040882319F0CE01F0
:1027E0000E94D712C251DF4F8881CE5ED04088232D
:1027F00019F0CE010E94DD10C05FDE4F8881C0510C
:10280000D140882319F0CE010E94D90CCE010E943C
:102810009A0FDF91CF9108950F931F938C010E941F
:10282000CB1AC8010E945C0EC80160E00E94F20E43
:1028300064E670E080E090E00E94681F80E061ED57
:1028400073E042E050E00E94221E8EE795E069E8C6
:1028500070E043E050E00E9410011F910F91089535
:10286000CF93DF93F894882319F440916B0009C04B
:10287000813019F440916C0004C0823011F4409111
:102880006D0090E0FC01EE0FFF1FEE57FA4F01A420
:10289000F2A5E02D20812423DC01AE57BA4F9F968C
:1028A0006C919F97622711F4789439C09F962C936E
:1028B000582F4427460F511DE3E8F5E0A0E0B0E0B3
:1028C000808191814817590721F5AA0FBB1FAE5788
:1028D000BA4F5596CD91DC91569740E0862F90E007
:1028E00030E082239323892B09F041E0440F888153
:1028F0008D7F842B88830E94151F625E7F4F8F4FD0
:102900009F4F69837A838B839C83888181608883CE
:1029100005C011963296AA30B10591F67894DF91F0
:10292000CF9108951F920F920FB60F9211242F93FB
:102930003F934F935F936F937F938F939F93AF9347
:10294000BF93EF93FF9382E00E943014FF91EF91C9
:10295000BF91AF919F918F917F916F915F914F91B7
:102960003F912F910F900FBE0F901F9018951F92BF
:102970000F920FB60F9211242F933F934F935F93B3
:102980006F937F938F939F93AF93BF93EF93FF9337
:1029900081E00E943014FF91EF91BF91AF919F9120
:1029A0008F917F916F915F914F913F912F910F90F8
:1029B0000FBE0F901F9018951F920F920FB60F9297
:1029C00011242F933F934F935F936F937F938F9334
:1029D0009F93AF93BF93EF93FF9380E00E943014D7
:1029E000FF91EF91BF91AF919F918F917F916F91E7
:1029F0005F914F913F912F910F900FBE0F901F90BD
:102A00001895CF92DF92EF92FF920F931F93CF937F
:102A1000DF93EC01888180FF4FC1E980FA800B8150
:102A20001C810E94151F6E157F058007910708F411
:102A300043C1888181FD0EC0888984FF0BC049890C
:102A4000242F30E08F858F7090E02817390714F419
:102A50004F5F498B8EEF8B8B88818695817081309B
:102A600009F045C0888982958F70282F217080FFDA
:102A700066C08989882371F08D819E81892B11F030
:102A80002B8B02C086E08B8B88818E7F88838A891E
:102A90008E7F8A8B8A8980FF18C0E984FA8400E0DF
:102AA00010E08C899D89AE89BF89E80EF91E0A1F46
:102AB0001B1F0E94151F6E157F058007910728F0C8
:102AC00087E08B8B8A898E7F8A8B8A8980FFAAC058
:102AD0000E94151F29853A8540E050E0260F371FD8
:102AE000481F591F29833A834B835C839BC08823EB
:102AF00019F5888984FF6CC00E94151F6C8B7D8B33
:102B00008E8B9F8B2F81388540E050E0260F371F3A
:102B1000481F591F29833A834B835C832881922F56
:102B2000990F990F990F907188898F7E892B888BC7
:102B3000216028838FEF75C0813009F047C08889F4
:102B400084FD70C08A8981FF05C08D7F8A8B84E0F7
:102B50008B8B12C080FF08C082FD02C088E08B8B87
:102B60008A898B7F8A8B08C08D819E81892B21F475
:102B70008989813009F41B8A8989882391F08D81A4
:102B80009E81892B71F00E94151F2D813E8140E0AE
:102B900050E0260F371F481F591F29833A834B8364
:102BA0005C838A898E7F8A8B988191609883990F44
:102BB000990F990F907188898F7E892B888B0E943D
:102BC000151F6C8B7D8B8E8B9F8B2CC0882351F5B2
:102BD000888984FD27C09A8991FF0CC00E94151F27
:102BE00066507F4F8F4F9F4F69837A838B839C837F
:102BF00083E017C090FF08C09D7F88818E7F888307
:102C000094609A8B85E00DC093609A8B0E94151F8B
:102C100066507F4F8F4F9F4F69837A838B839C834E
:102C200082E08B8B8B898E3F09F446C0C980DA80A5
:102C30000E94151F22E330E0C20ED31EC61AD70A27
:102C400076010027F7FC0095102F888D998DAA8DAD
:102C5000BB8DE816F9060A071B07D8F0E88EF98E37
:102C60000A8F1B8F8CE396E063E871E00E941F1EC1
:102C70008CE396E0B6014AE050E00E940C1E8CE323
:102C800096E06AE00E94231DED85FE85C801B7012C
:102C900009958889EB85FC858F706B894989099531
:102CA0008B89813021F0843011F0863029F4198A23
:102CB000188E198E1A8E1B8EDF91CF911F910F9156
:102CC000FF90EF90DF90CF900895CF93DF93C7E907
:102CD000D5E088819981009711F00E940115229614
:102CE00085E0CB3AD807A9F7DF91CF9108954F92AD
:102CF0005F926F927F928F929F92AF92BF92CF928C
:102D0000DF92EF92FF920F931F93DF93CF93CDB794
:102D1000DEB73C01462E522E4F70DC011F968C917F
:102D20001F97807F842B1F968C93822F62E00E94D6
:102D3000D01FF30116830583F086E782D286C18611
:102D4000B486A38696868586D30158961D921D92D9
:102D50001D921C925B97952D9295907F1F968C915A
:102D60001F978F70892B1F968C931F978C918E7F46
:102D700082608C9350968C915097806150968C9382
:102D8000509752968C915297897F52968C93B5E1C9
:102D9000B51518F4E0E0F0E002C0E8E6F0E090815C
:102DA00087E0851510F084E006C0ADE0A51510F0B1
:102DB00081E001C082E0892B8083B7E0B51518F06F
:102DC0006DE670E00EC0EDE0E51518F06BE670E022
:102DD00008C0F5E1F51518F460E070E002C06CE69B
:102DE00070E0DB014C91B7E0B51548F081E090E070
:102DF000052C02C0880F991F0A94E2F711C0252DF7
:102E000030E0EDE0E51518F02850304002C02E50BB
:102E1000304081E090E002C0880F991F2A95E2F7C8
:102E2000842BDB018C93452D50E0FA01EF58FE4FC7
:102E3000E491E2500E2F10E0F801EE0FFF1FE5596C
:102E4000FE4FA591B4918C91FB019081F801EE5752
:102E5000FA4F892387A7F801EE0FFF1FEE57FA4FAD
:102E6000B2A7A1A7E42DEF70D30150968C91509793
:102E7000807F8E2B50968C935097F0E0EE0FFF1FC3
:102E8000EE57FA4F768A658A50968C918F70B7E02C
:102E9000B51540F021E030E002C0220F331F5A94F4
:102EA000E2F70FC0EDE0E51518F04850504002C0C1
:102EB0004E50504021E030E002C0220F331F4A95AF
:102EC000E2F7E82FF0E0EE0FFF1FEE57FA4F902FDA
:102ED0008827280F391F32832183CF91DF911F91DB
:102EE0000F91FF90EF90DF90CF90BF90AF909F90A9
:102EF0008F907F906F905F904F900895CF93DF9366
:102F0000AB01BC018EE480937C0086E880937A005C
:102F1000C0E0D0E020E030E080917A0080648093CF
:102F20007A0080917A0086FDFCCF2A30310534F09A
:102F30008091780090917900C80FD91F2F5F3F4F83
:102F40002A34310549F780917A008F7780937A008F
:102F5000CB01BA012FEF33E040E050E00E94642043
:102F600056E0D695C7955A95E1F79E0140E050E0AE
:102F70000E948320C901DF91CF910895EF92FF92C3
:102F80000F931F93CF93DF938C01C62FD0E07C016A
:102F9000EC0EFD1EF701808160E00E940F20F7011A
:102FA00012822296CC0FDD1FCC0FDD1FC00FD11F68
:102FB000188219821A821B82DF91CF911F910F9183
:102FC000FF90EF900895CF93DF93EC0160FF07C06F
:102FD00060E00E94BE17CE0161E00E94BE171C8215
:102FE0001E821A821D821F821B82DF91CF9108955B
:102FF000EF92FF920F931F93CF93DF937C01C62F25
:10300000D0E08C010C0F1D1FF801808161E00E944F
:103010000F2081E0F80182832296CC0FDD1FCC0FB8
:10302000DD1FCE0DDF1D188219821A821B82DF91EF
:10303000CF911F910F91FF90EF9008959C01FC019B
:10304000E60FF11D8281882321F0C9010E94BE177D
:103050000895C9010E94F8170895FF920F931F93D6
:10306000CF93DF93EC01042F30E0220F331FF22EB9
:10307000162F60FF08C00C832E830E94151F6887DF
:1030800079878A879B8711FF08C00D83FF820E9482
:10309000151F6C877D878E879F87DF91CF911F914A
:1030A0000F91FF9008959F92AF92BF92CF92DF92BF
:1030B000EF92FF920F931F93CF93DF936C015C010C
:1030C000EC019924D5011896ED90FD900D911C917D
:1030D0001B97E114F1040105110509F498C00E9441
:1030E000151F6E157F058007910708F490C08C812D
:1030F000882329F4C601692D0E94BE175CC0813067
:1031000029F4C601692D0E94F81755C0823059F480
:10311000C601692D0E941E180E94151F685A7D4F16
:103120008F4F9F4F20C0833091F4C601692D0E94BC
:103130001E180E94151F645D7E4F8F4F9F4FD50153
:1031400018966D937D938D939C931B9734C0843018
:1031500081F4C601692D0E941E180E94151F6C592A
:103160007F4F8F4F9F4FF5016087718782879387CD
:1031700022C0853001F58E81843008F01E82C601A0
:10318000692D0E941E180E94151FAE81EA2FF0E0E3
:10319000EE0FFF1FEC54FD4F2081318140E050E0E5
:1031A000260F371F481F591FF50120873187428797
:1031B0005387AF5FAE838C818250833040F58E8120
:1031C000882329F181508E83882321F4C601692D3B
:1031D0000E94BE178C81833029F46CE271E080E09C
:1031E00090E00BC0843029F464E670E080E090E069
:1031F00004C068E572E080E090E06C597F4F8F4F2B
:103200009F4FD6015096ED91FC915197099593945B
:10321000E4E0F0E0AE0EBF1E2196F2E09F1609F04A
:1032200051CFDF91CF911F910F91FF90EF90DF90E1
:10323000CF90BF90AF909F900895FF920F931F93F0
:103240008C01862FF42EF801318B208B608361E096
:103250000E94D01FC80160E00E94BE17F801F182F1
:103260008F2D61E00E94D01FC80161E00E94BE174F
:103270001F910F91FF9008952A981C99FECF86E325
:103280008EBD0DB407FEFDCF8EB52A9A2A981C99E3
:10329000FECF8AE38EBD0DB407FEFDCF8EB52A9A10
:1032A0002A981C99FECF89E38EBD0DB407FEFDCF91
:1032B0008EB52A9A0895722F2A981C99FECF6064C1
:1032C0006EBD0DB407FEFDCF8EB5FA0190E008C0CB
:1032D00080818EBD0DB407FEFDCF8EB59F5F319608
:1032E0009717B0F32A9A0895522F2A981C99FECF67
:1032F000406C4EBD0DB407FEFDCF8EB5FB0190E0D6
:1033000007C01EBC0DB407FEFDCF8EB581939F5F35
:103310009517B8F32A9A08950F931F93CF93DF93CD
:10332000EC018B012A981C99FECF8BEF8EBD0DB45A
:1033300007FEFDCF8EB51EBC0DB407FEFDCF2EB52A
:103340002A9A822F90E08F779070892B09F442C0DF
:1033500027FD40C02A981C99FECF8FEB8EBD0DB47F
:1033600007FEFDCF8EB51EBC0DB407FEFDCF2EB5FA
:103370002A9AF80120832D3370F5B8016F5F7F4FD3
:10338000CE014FE30E9474192A981C99FECF8FEB4F
:103390008EBD0DB407FEFDCF8EB51EBC0DB407FE6D
:1033A000FDCF8EB52A9A2A981C99FECF8FEB8EBD41
:1033B0000DB407FEFDCF8EB51EBC0DB407FEFDCFCC
:1033C0008EB52A9A982F9F779B83881F8827881FFE
:1033D000898302C0F80110822A981C99FECF8AE3E3
:1033E0008EBD0DB407FEFDCF8EB52A9A2A981C9982
:1033F000FECF86E38EBD0DB407FEFDCF8EB52A9AB3
:103400002A981C99FECF84E38EBD0DB407FEFDCF34
:103410008EB52A9A2A981C99FECF8CE38EBD0DB4E6
:1034200007FEFDCF8EB52A9AF8018081DF91CF91FA
:103430001F910F9108952A981C99FECF2A9A2A98D5
:103440001C99FECF84E38EBD0DB407FEFDCF8EB573
:103450002A9A63E070E080E090E00E94681F2A985A
:103460001C99FECF88EF8EBD0DB407FEFDCF8EB543
:103470001EBC0DB407FEFDCF8EB52A9A90E026E063
:10348000959587952A95E1F7817008950F931F937D
:10349000CF93DF938C01EB012A981C99FECF86E332
:1034A0008EBD0DB407FEFDCF8EB52A9A2A981C99C1
:1034B000FECF8AE38EBD0DB407FEFDCF8EB52A9AEE
:1034C0002A981C99FECF8BE38EBD0DB407FEFDCF6D
:1034D0008EB52A9A442379F02A981C99FECF85E369
:1034E0008EBD0DB407FEFDCF8EB52A9A68E671E059
:1034F00080E090E004C061E070E080E090E00E9435
:10350000681F28812F5FC8016FE3AE010E945B191D
:103510002A981C99FECF8AE38EBD0DB407FEFDCF1D
:103520008EB52A9A2A981C99FECF85E38EBD0DB4DC
:1035300007FEFDCF8EB52A9A10E005EF2A981C9958
:10354000FECF0EBD0DB407FEFDCF8EB51EBC0DB473
:1035500007FEFDCF8EB52A9A8D30B9F02A981C99B6
:10356000FECF0EBD0DB407FEFDCF8EB51EBC0DB453
:1035700007FEFDCF8EB52A9A833139F48AE090E0B8
:103580000E94231F1F5F183CC9F681E0DF91CF9195
:103590001F910F9108951F938AE061E00E94D01F50
:1035A0008BE061E00E94D01F8CE060E00E94D01FA1
:1035B0008DE061E00E94D01F82E060E00E94D01F99
:1035C0008AE061E00E940F208DE061E00E940F2000
:1035D0008BE060E00E940F2080E58CBD2A9A85E098
:1035E00090E00E94231F2A988AE090E00E94231F07
:1035F0002A9A89E290E00E94231F2A981C99FECF04
:1036000080E38EBD0DB407FEFDCF8EB52A9A6AE029
:1036100070E080E090E00E94681F80E090E0FC0194
:10362000E15EFE4F2491FC01E05EFE4F34912A984A
:103630001C99FECF2EBD0DB407FEFDCF2EB53EBDAD
:103640000DB407FEFDCF2EB52A9A0296843391055C
:1036500031F72A981C99FECF83E38EBD0DB407FE87
:10366000FDCF8EB52A9A15EF04C081E090E00E944C
:10367000231F2A981C99FECF1EBD0DB407FEFDCF57
:103680008EB51EBC0DB407FEFDCF8EB52A9A8130D3
:1036900061F72A981C99FECF8EE38EBD0DB407FE0C
:1036A000FDCF8EB580EC8EBD0DB407FEFDCF8EB57F
:1036B0002A9A2A981C99FECF84E38EBD0DB407FE8A
:1036C000FDCF8EB52A9A2A981C99FECF8CE38EBD29
:1036D0000DB407FEFDCF8EB52A9A1F910895089567
:1036E0001F920F920FB60F9211242F933F934F9377
:1036F0008F939F93EF93FF938091C00082FD1DC035
:103700004091C6002091F4053091F5052F5F3F4FA1
:103710002F7330708091F6059091F70528173907BF
:1037200071F0E091F405F091F505EC54FA4F408307
:103730003093F5052093F40502C08091C600FF91F7
:10374000EF919F918F914F913F912F910F900FBECD
:103750000F901F901895E0914806F0914906E05CA3
:10376000FF4F8191919120813181821B930B8F7347
:103770009070892B11F00E946F1B08951F920F9279
:103780000FB60F9211242F933F938F939F93EF9334
:10379000FF93209138063091390680913A06909136
:1037A0003B062817390731F48091C1008F7D809343
:1037B000C10014C0E0913A06F0913B06E850FA4F80
:1037C000208180913A0690913B0601968F7390700C
:1037D00090933B0680933A062093C600FF91EF91A9
:1037E0009F918F913F912F910F900FBE0F901F903F
:1037F0001895DC011C96ED91FC911D97E05CFF4F44
:103800002191319180819181281B390B2F73307068
:10381000C9010895DC011C96ED91FC911D97E05CB7
:10382000FF4F20813181E054F040DF01AE5BBF4F9C
:103830008D919C9111972817390719F42FEF3FEFBD
:1038400007C08D919C91E80FF91F8081282F30E0EF
:10385000C9010895DC011C96ED91FC911D97E05C77
:10386000FF4F20813181E054F040DF01AE5BBF4F5C
:103870008D919C9111972817390719F42FEF3FEF7D
:1038800010C08D919C911197E80FF91F20818D91A7
:103890009C91119701968F73907011969C938E93C3
:1038A00030E0C9010895DC0191968C9191978823AD
:1038B00039F05496ED91FC915597808186FFF9CFB0
:1038C00091961C920895CF93DF93EC01EE85FF85CE
:1038D000E05CFF4F20813181E054F0402F5F3F4F8B
:1038E0002F733070DF01AE5BBF4F8D919C911197AC
:1038F00028173907D1F3E05CFF4F80819181E054B4
:10390000F040E80FF91F6083EE85FF85E05CFF4F14
:1039100031832083EE89FF89208181E090E00F8C44
:1039200002C0880F991F0A94E2F7282B208381E0B8
:1039300089A3EC89FD8980818064808381E090E0A7
:10394000DF91CF91089510923F0610923E0688EEC7
:1039500093E0A0E0B0E08093400690934106A093EE
:103960004206B093430680EC92E090933D0680932C
:103970003C0684EB95E0909349068093480688EFD7
:1039800095E090934B0680934A0685EC90E09093E7
:103990004D0680934C0684EC90E090934F06809304
:1039A0004E0680EC90E0909351068093500681EC97
:1039B00090E0909353068093520682EC90E09093AF
:1039C00055068093540686EC90E0909357068093BA
:1039D000560684E08093580683E08093590687E07A
:1039E00080935A0685E080935B0681E080935C06B5
:1039F0000895CF92DF92EF92FF920F931F93CF9390
:103A0000DF937C016B018A01C0E0D0E00FC0D601DA
:103A10006D916D01D701ED91FC910190F081E02D48
:103A2000C7010995C80FD91F015010400115110594
:103A300071F7CE01DF91CF911F910F91FF90EF9021
:103A4000DF90CF900895DC01ED91FC910190F08121
:103A5000E02D09950895CF93DF93EC016115710571
:103A600019F420E030E00FC0DB010D900020E9F7F1
:103A70001197A61BB70BE881F9810280F381E02D35
:103A8000AD0109959C01C901DF91CF9108954F9235
:103A90005F927F928F929F92AF92BF92CF92DF926E
:103AA000EF92FF920F931F93DF93CF93CDB7DEB7C3
:103AB000A1970FB6F894DEBF0FBECDBF2C01742EB8
:103AC000CB01223008F42AE019A231E2C32ED12C16
:103AD000CC0EDD1E822E9924AA24BB24672D752FBF
:103AE000A50194010E94832079018A01C801B701D0
:103AF000A50194010E946420472D461B0894C1082B
:103B0000D1084A3014F4405D01C0495CF60140839D
:103B1000E114F1040105110521F07E2C5F2DC8018F
:103B2000DDCFC201B6010E942B1DA1960FB6F894FD
:103B3000DEBF0FBECDBFCF91DF911F910F91FF90E0
:103B4000EF90DF90CF90BF90AF909F908F907F903D
:103B50005F904F900895DC012115310541F4ED91FE
:103B6000FC910190F081E02D642F099508950E9449
:103B7000471D0895EF92FF920F931F939A01E62E2F
:103B8000FF2400E010E0B801A7010E94AB1D1F91C7
:103B90000F91FF90EF900895CF92DF92EF92FF92F6
:103BA0000F931F93CF93DF93EC016A017B012115E3
:103BB000310541F4E881F9810190F081E02D642F15
:103BC00009951FC02A303105D1F477FF17C0E8816D
:103BD000F9810190F081E02D6DE209958C01442777
:103BE0005527BA014C195D096E097F09CE012AE0FB
:103BF0000E94471D9801280F391F04C02AE00E9427
:103C0000471D9C01C901DF91CF911F910F91FF903A
:103C1000EF90DF90CF900895EF92FF920F931F9354
:103C20007B019A010027F7FC0095102FB801A7012E
:103C30000E94CC1D1F910F91FF90EF9008950E945C
:103C40002B1D0895823000F5E82FF0E0EE0FFF1FE6
:103C5000E25AF94F71836083882319F08130A1F40F
:103C600008C0809169008C7F842B80936900E89A5A
:103C7000089580916900440F551F440F551F837F9D
:103C8000842B80936900E99A0895823080F4882318
:103C900019F0813021F402C0E89801C0E998E82FBA
:103CA000F0E0EE0FFF1FE25AF94F118210820895E3
:103CB0001F920F920FB60F9211242F933F934F93A1
:103CC0005F936F937F938F939F93AF93BF93EF9384
:103CD000FF9380915E0690915F06892B29F0E09119
:103CE0005E06F0915F060995FF91EF91BF91AF914C
:103CF0009F918F917F916F915F914F913F912F9104
:103D00000F900FBE0F901F9018951F920F920FB635
:103D10000F9211242F933F934F935F936F937F9351
:103D20008F939F93AF93BF93EF93FF938091600620
:103D300090916106892B29F0E0916006F09161066F
:103D40000995FF91EF91BF91AF919F918F917F91D5
:103D50006F915F914F913F912F910F900FBE0F90F8
:103D60001F901895CF93DF930E942D1F0E94D902B8
:103D7000CBEADBE10E94C7022097E1F30E94AB1B74
:103D8000F9CF1F920F920FB60F9211242F933F93EA
:103D90004F935F936F937F938F939F93AF93BF9353
:103DA0002091660630916706409168065091690639
:103DB00070916A06DA01C9010296A11DB11D672F33
:103DC0006A5F6D3730F06D57DA01C9010396A11DA6
:103DD000B11D60936A068093660690936706A09370
:103DE0006806B09369068091620690916306A0917F
:103DF0006406B09165060196A11DB11D809362060F
:103E000090936306A0936406B0936506BF91AF914B
:103E10009F918F917F916F915F914F913F912F91E2
:103E20000F900FBE0F901F9018958FB7F8942091A8
:103E300066063091670640916806509169068FBF0B
:103E4000B901CA010895019739F0019729F0880F47
:103E5000991F01970197F1F70895789484B58260CE
:103E600084BD84B5816084BD85B5826085BD85B51E
:103E7000816085BDEEE6F0E0808181608083E1E8CD
:103E8000F0E0108280818260808380818160808305
:103E9000E0E8F0E0808181608083E1EBF0E0808108
:103EA00084608083E0EBF0E0808181608083EAE7DA
:103EB000F0E0808184608083808182608083808163
:103EC000816080838081806880831092C100089522
:103ED000EF92FF920F931F93CF93DF937B018C019F
:103EE0003FB7F8948091620690916306A0916406B2
:103EF000B091650626B5A89B05C02F3F19F0019625
:103F0000A11DB11D3FBFBA2FA92F982F8827820F5F
:103F1000911DA11DB11D53E0880F991FAA1FBB1F42
:103F20005A95D1F7EC0130C00E9463203FB7F89456
:103F30008091620690916306A0916406B091650637
:103F400026B5A89B05C02F3F19F00196A11DB11DF4
:103F50003FBFBA2FA92F982F8827820F911DA11D2F
:103F6000B11D33E0880F991FAA1FBB1F3A95D1F7E7
:103F70008C1B9D0B885E9340B8F20894E108F10811
:103F800001091109C851DC4FE114F10401051105C3
:103F900059F6DF91CF911F910F91FF90EF90089507
:103FA000CF93DF93482F50E0CA018B579E4FFC01FF
:103FB00034914F585E4FFA018491882369F190E063
:103FC000880F991FFC01ED5AFE4FA591B491FC0199
:103FD000E35AFE4FC591D491662351F42FB7F8945C
:103FE0008C91932F909589238C93888189230BC082
:103FF000623061F42FB7F8948C91932F90958923B8
:104000008C938881832B88832FBF06C09FB7F89439
:104010008C91832B8C939FBFDF91CF910895482F74
:1040200050E0CA0187569E4FFC012491CA018B576C
:104030009E4FFC0194914F585E4FFA013491332307
:1040400009F440C0222351F1233071F0243028F4C8
:104050002130A1F0223011F514C02630B1F0273004
:10406000C1F02430D9F404C0809180008F7703C060
:10407000809180008F7D8093800010C084B58F7701
:1040800002C084B58F7D84BD09C08091B0008F7758
:1040900003C08091B0008F7D8093B000E32FF0E0EB
:1040A000EE0FFF1FE35AFE4FA591B4912FB7F8947E
:1040B000662321F48C919095892302C08C91892BE1
:1040C0008C932FBF08950895629FD001739FF001D4
:1040D000829FE00DF11D649FE00DF11D929FF00D98
:1040E000839FF00D749FF00D659FF00D9927729FCF
:1040F000B00DE11DF91F639FB00DE11DF91FBD015A
:10410000CF0111240895A1E21A2EAA1BBB1BFD01A9
:104110000DC0AA1FBB1FEE1FFF1FA217B307E407A6
:10412000F50720F0A21BB30BE40BF50B661F771FFE
:10413000881F991F1A9469F76095709580959095DE
:104140009B01AC01BD01CF010895EE0FFF1F05904B
:10415000F491E02D09942F923F924F925F926F92CB
:104160007F928F929F92AF92BF92CF92DF92EF9207
:10417000FF920F931F93CF93DF93CDB7DEB7CA1B88
:10418000DB0B0FB6F894DEBF0FBECDBF09942A88B3
:10419000398848885F846E847D848C849B84AA845B
:1041A000B984C884DF80EE80FD800C811B81AA81E8
:1041B000B981CE0FD11D0FB6F894DEBF0FBECDBFB3
:0841C000ED010895F894FFCF12
:1041C800693A002C20733A002C20723A2000536C74
:1041D8006565702C20706F77722E6D6F64653A205C
:1041E800002C20706F77722E6E7874544F3E6D6974
:1041F8006C6C697328293A20002C2073656E642E34
:10420800636F756E7465723A200053657269616CEC
:104218003A20002C204D6F64656C2049443A2000F8
:1042280020002C20484D49443A20000A005061697A
:104238007265643A20004669726D776172653A204A
:10424800002E00737461794177616B6554696D65FF
:104258003A2000B904BF04C204C304C604C704CA90
:1042680004CB04CE04CF04D204D304D60406060635
:10427800060606FFFFFF010200000A0302001801FC
:1042880005000401060008020700010109000101F8
:104298000A0001010B0001010C0001010D000101E0
:1042A8000E0004010F0008021000010112000101B4
:1042B800130001011400010115000101160001019C
:1042C8001700040118000802190001011B00010170
:1042D8001C0001011D0001011E0001011F00010158
:1042E800200004012100080222000101240001012C
:1042F8002500010126000101270001012800010114
:10430800290004012A0008022B0001012D000101E7
:104318002E0001012F0001013000010131000101CF
:1043280032000401330008023400010136000101A3
:104338003700010138000101390001013A0001018B
:104348003B000701000000000006000300000F000A
:104358000B0000180013000021001B00002A002396
:10436800000033002B0002010201040106010003D2
:10437800010000003200C8003200E803000000001D
:0C438800631CF91CF91B2A1C0A1C531CA6
:00000001FF
