:100000000C94A3020C94CE270C94FB270C940A1B8F
:100010000C94E51A0C94C01A0C94D3060C94CB02E1
:100020000C94CB020C94CB020C94CB020C94CB021C
:100030000C94CB020C94CB020C94CB020C94CB020C
:100040000C94BE280C94CB020C9400240C944E24E7
:100050000C94CB020C94CB020C94CB020C94CB02EC
:100060000C94CB020C94CB0268000E047000430584
:10007000730148056500B20466024A046300130474
:100080007400EC036201AD036100910372009803F8
:1000900000000000010ED1051104C305FFFF5D053E
:1000A00000000000726573657420646F6E650A005D
:1000B0007265736574206465766963652C20636C72
:1000C00065617220656570726F6D2E2E2E0A00209C
:1000D0006279746527730A00467265654D656D3AED
:1000E00020000A417661696C61626C6520636F6D06
:1000F0006D616E64733A0A20207020202020202039
:10010000202020202020202020202D2073746172A8
:10011000742070616972696E672077697468206DF8
:1001200061737465720A2020625B305D2020625B1F
:100130006E5D202073202020202D2073656E6420AA
:100140006120737472696E672C20625B305D206978
:1001500073206C656E67746820283530206279746E
:100160006573206D6178290A0A2020695B305D2E55
:1001700020695B315D2E2065202020202D207368B2
:100180006F7720656570726F6D20636F6E74656E3A
:10019000742C20695B305D2E207374617274206151
:1001A0006464726573732C20695B315D2E206C650D
:1001B0006E6774680A2020695B305D2E20625B31B7
:1001C0005D202066202020202D2077726974652014
:1001D000636F6E74656E7420746F20656570726FE6
:1001E0006D2C20695B305D2E2061646472657373D1
:1001F0002C20695B315D20627974650A20206320C0
:100200002020202020202020202020202020202DE1
:1002100020636C65617220656570726F6D20636F1D
:100220006D706C6574652C20777269746520302060
:1002300066726F6D20737461727420746F20656EC6
:10024000640A0A2020625B635D2020625B6C5D2093
:100250002062202020202D2073656E64206275743A
:10026000746F6E206576656E742C20625B635D2012
:100270006368616E6E656C2C20625B6C5D207368D8
:100280006F72742030206F72206C6F6E6720310A9D
:10029000202061202020202020202020202020201D
:1002A0002020202D2073746179206177616B652097
:1002B000666F7220545258206D6F64756C652028EB
:1002C00076616C696420696620706F776572206D55
:1002D0006F6465203D2032290A20207420202020D0
:1002E0002020202020202020202020202D20676971
:1002F00076657320616E206F76657276696577200A
:100300006F66207468652064657669636520636F35
:100310006E66696775726174696F6E0A0A202024BF
:100320006E6E20666F722048455820696E70757435
:100330002028652E672E202441422C244143202969
:100340003B20625B5D203D20627974652C20695BF7
:100350005D2E203D20696E7465676572200A006419
:100360006F6E650020627974657300436C6561721D
:1003700020454570726F6D2C2073697A653A2000B4
:100380002C20446174613A200057726974652045DD
:100390004570726F6D2C20416464726573733A20EE
:1003A00000202020002C206C656E3A20004545502E
:1003B000524F4D206C697374696E672C20737461A1
:1003C00072743A200003F103484230446566617557
:1003D0006C7440060000ABCDEF636E6C097049642D
:1003E0007809736C6350747209736C63456E6409A9
:1003F00070687941646472097068794C656E096C43
:1004000069737409706565720A0020627974650AFF
:10041000000A506565722044617461626173652CE5
:100420002073697A653A2000636E6C096C737409F5
:10043000736C6350747209736C63456E6409706801
:100440007941646472097068794C656E0A002062B3
:100450007974650A000A44657669636520636F6E86
:100460006669672C2073697A653A20004B6E6F7756
:100470006E20636F6D6D616E64733A0020627974F3
:100480006573004E6F7420656E6F756768206461D8
:1004900074612C206E6565642000556E7265636F13
:1004A000676E697A656420636861726163746572FE
:1004B0003A2000002E012E0206030D04E905CA06AB
:1004C0003D070C0B060D210E650F6A10C811931223
:1004D00003153416011730181819161B4321562519
:1004E0000026112D353EC300000000240027002AFD
:1004F0000000000000250028002B00000000002361
:100500000026002900040404040404040402020276
:100510000202020303030303030102040810204044
:1005200080010204081020010204081020000000CD
:1005300007000201000003040600000000000000A4
:1005400000007803B12511241FBECFEFD8E0DEBF35
:10055000CDBF13E0A0E0B1E0E4E5F8E502C005900E
:100560000D92AE30B107D9F716E0AEE0B3E001C0AE
:100570001D92A03CB107E1F715E0C6E4D5E004C048
:100580002297FE010E94ED2BC234D107C9F70E94C9
:1005900028280C94282C0C940000FB01DC0104C0DA
:1005A0008D910590801921F441505040C8F7881B67
:1005B000990B0895FB01DC0102C005900D9241509A
:1005C0005040D8F70895FC014150504030F0019060
:1005D0000616D1F73197CF010895882799270895F6
:1005E000FB01DC0104C08D910190801921F4415080
:1005F0005040C8F7881B990B0895FB01DC0102C02D
:1006000001900D9241505040D8F70895DC0101C08F
:100610006D9341505040E0F70895A0E0B0E0E3E171
:10062000F3E00C94FB2B7C01EB018A01690109C00A
:10063000CE012196F6010995F70181937F010150C2
:10064000104001151105A1F7CDB7DEB7E8E00C9415
:10065000172CDF92EF92FF920F931F937B018C0177
:10066000FB010995D82EC8010196F7010995982F2D
:100670008D2D1F910F91FF90EF90DF900895A0E0D6
:10068000B0E0E5E4F3E00C94FB2BEC017B018A0184
:10069000690109C0CE012196F70161917F01F60140
:1006A00009950150104001151105A1F7CDB7DEB72E
:1006B000E8E00C94172CDF92EF92FF920F931F93B8
:1006C000D72E7A018C01FA010995C80101966D2D8A
:1006D000F70109951F910F91FF90EF90DF9008951A
:1006E0009C01F999FECF32BD21BDF89A80B50895DD
:1006F0008EE093E062E348E650E02FE836E00E94A7
:10070000DF1F8FE193E064E970E048EB51E00E9465
:10071000E2060895AB01BC018FE193E00E942F1324
:10072000089560E375E780E090E00E948A030895F1
:100730000F931F930FE816E0C80160EB70E00E9472
:1007400031268FE193E00E947816C80164EA70E0D8
:100750000E9431261F910F9108950F931F93DF93ED
:10076000CF9300D0CDB7DEB78EE093E0BE016F5FD0
:100770007F4F41E00E941D1EBE016E5F7F4F41E032
:100780000E941D1E0FE816E0C80160E071E00E94A3
:100790009527C80169814AE050E00E943027C801CE
:1007A00064E171E00E949527C8016A814AE050E047
:1007B0000E943027C8016AE00E9454268FE193E02E
:1007C00069814A8120E00E940C070F900F90CF9121
:1007D000DF911F910F9108958FE193E00E94CA1756
:1007E00008950F931F938FE193E00E9482190FE801
:1007F00016E0C80168ED70E00E9431260E94AC1D31
:10080000BC01C8014AE050E00E941F27C8016FECFC
:1008100070E00E9431261F910F91089582EE90E0C2
:100820000E94081E08958FE896E06BE673E00E9430
:1008300031268FE896E060E074E04AE050E00E94E4
:1008400082278FE896E064E673E00E9431268FE805
:1008500096E06AE00E94542680E090E0F999FECF8D
:100860001FBA92BD81BD10BC0FB6F894FA9AF99ADE
:100870000FBE019624E08030920781F78FE896E062
:100880006FE573E00E9431268FE896E06AE00E94EF
:1008900054260895CF92DF92EF92FF921F93DF9339
:1008A000CF9300D00F92CDB7DEB710E082E0C82E14
:1008B000D12CCC0EDD1E7E010894E11CF11C42C03F
:1008C0008EE093E0B60142E00E941D1EB70141E0B8
:1008D0000E941D1E8A819B812981F999FECF1FBA32
:1008E00092BD81BD20BD0FB6F894FA9AF99A0FBE59
:1008F0008FE896E069E873E00E9431268B810E94C0
:10090000F91F682F8FE896E00E9454268A810E9482
:10091000F91F682F8FE896E00E9454268FE896E032
:1009200060E873E00E94312689810E94F91F682FD8
:100930008FE896E00E9454268FE896E06AE00E94D5
:1009400054261D5F80911103181708F4B9CF0F903A
:100950000F900F90CF91DF911F91FF90EF90DF905C
:10096000CF900895EF92FF920F931F93DF93CF9351
:10097000CDB7DEB7A4970FB6F894DEBF0FBECDBFDC
:100980008EE093E0BE016F5F7F4F42E00E941D1E2C
:10099000BE016D5F7F4F42E00E941D1E8B819C81D6
:1009A000892B41F48FEF93E029813A81821B930BCD
:1009B0009C838B838FE896E06DEA73E00E9431267A
:1009C00069817A818FE896E04AE050E00E941F2713
:1009D0008FE896E065EA73E00E9431266B817C81A6
:1009E0008FE896E04AE050E00E941F278FE896E0EB
:1009F0006AE00E94542609811A8195E0E92EF12CC3
:100A0000EC0EFD1E2EC0C701B80140E250E020E709
:100A100033E00E940D03812F0E94F91F682F8FE899
:100A200096E00E945426802F0E94F91F682F8FE8BD
:100A300096E00E9454268FE896E061EA73E00E94F7
:100A40003126C70160E20E942520682F8FE896E0DA
:100A50000E9454268FE896E06AE00E945426005EC9
:100A60001F4F8B819C810817190768F2A4960FB657
:100A7000F894DEBF0FBECDBFCF91DF911F910F91D4
:100A8000FF90EF9008958FE193E00E943216089551
:100A90000F931F9305E313E040911103EEE0F3E0A1
:100AA00060817181C80150E00E94FD02C801469733
:100AB0000E94B10D1F910F9108952F923F924F9276
:100AC0005F926F927F928F929F92AF92BF92CF92DE
:100AD000DF92EF92FF920F931F93A8E46A2EA4E097
:100AE0007A2EF9ED4F2EF5E05F2EEAE82E2EE3E0A8
:100AF0003E2EC30160E041E028E000E010E078E82D
:100B0000E72E73E1F72E58E8C52E53E1D52E52019A
:100B100041010E94A51C809114058F7090E024E68D
:100B200030E0829F8001839F100D929F100D112451
:100B30008091120582958F7090E0829FF001839FD3
:100B4000F00D929FF00D1124E45DFE4FC3014C9611
:100B500061E046E02EE07F0138EEC32E33E0D32E75
:100B60000E94A51C1F910F91FF90EF90DF90CF90F6
:100B7000BF90AF909F908F907F906F905F904F90BD
:100B80003F902F9008951F93182F8FE193E00E94BC
:100B9000510E112321F48FE193E00E9478161F91EA
:100BA0000895682F8FE193E040E020E00E94BD0EA1
:100BB0000895FF920F931F93082F162FF42E8FE89E
:100BC00096E063E271E00E9495278FE896E0602F3F
:100BD0004AE050E00E9430278FE896E066E271E03C
:100BE0000E9495278FE896E0612F4AE050E00E942E
:100BF00030278FE896E06BE271E00E9495278FE83E
:100C000096E06F2D4AE050E00E9430278FE896E092
:100C10006AE00E945426002399F5112329F48FE1FC
:100C200093E00E9432162CC0123071F483E293E0FC
:100C300062E044E020E00E94BD206CEF7AE380E0B7
:100C400090E00E948A031CC0812F8750823028F4D4
:100C500083E293E062E040E010C0153089F48FE158
:100C600093E00E94781668EB7BE080E090E00E94C1
:100C70008A0383E293E062E041E020E00E94BD202D
:100C8000802F8150863068F56CE474E080E090E05D
:100C90000E94C81D20E08E52994008F421E0809106
:100CA000120582958F7029F08F2D8150863008F4BF
:100CB0000F2D123028F48FE193E0602F40E00FC039
:100CC000812F8250823028F48FE193E0602F41E041
:100CD00006C0143031F48FE193E0602F42E00E94AF
:100CE0000C071F910F91FF9008950F931F938EE0B3
:100CF00093E00E94371E0FE113E0C8010E94921793
:100D0000C80104960E94E32088E494E00E94931CAA
:100D10001F910F910895EF92FF920F931F938FE809
:100D200096E040E051EE60E070E00E9489240FE11F
:100D300013E0C8010E943A1AB4E0EB2EF12CE00E49
:100D4000F11EC70164E045E02AE833E00E94AD21CE
:100D5000C80164E00E94B012C8010E94EB060E9424
:100D60000E040E94F103C70162E043E023E00E9409
:100D7000BD201F910F91FF90EF9008959C01F9996C
:100D8000FECF32BD21BDF89A80B508959C01F99936
:100D9000FECF1FBA32BD21BD60BD0FB6F894FA9ADE
:100DA000F99A0FBE08951F920F920FB60F92112459
:100DB0008F9381E080932A058F910F900FBE0F9043
:100DC0001F901895FC01E052FF4F71836083F996E4
:100DD000518340830895FC01E052FF4F40815181CF
:100DE000FA0184914F5F5F4FFA0194914150504056
:100DF0009A012E5F3F4FF901A591B4918F3F49F4BD
:100E00009F3F39F480E06BE275E040E0FD01099519
:100E100008954C5F5F4FE4CFCF93DF93EC01522FE7
:100E2000673008F079C0C05FDE4F8881C051D14083
:100E3000882331F0423009F06FC0C15FDE4F5DC0E2
:100E4000862F90E0FC01EE0FFF1FEE0FFF1FE80F53
:100E5000F91FE555FD4F818190E09C0173E0220F61
:100E6000331F7A95E1F7281B390BF901E153FD4F48
:100E7000E081D901A053BD4F90E008C08C9113963A
:100E8000843019F49E17E0F147C09F5F9E17B0F3BE
:100E900043C084E8C85FDE4F8883C850D1404423F4
:100EA00011F480E001C080E4CF50DF4F5795552703
:100EB0005795562B852B8883C15FD040DE01AE50FD
:100EC000BF4FC151DF4F8881CF5ED040282F30E027
:100ED000FE01E20FF31FE85FFE4F80818C934130EB
:100EE00039F0FE01E20FF31FE85FFE4F8F5F808352
:100EF000CB5FDE4F82E088832B9681E088830CC035
:100F0000C151DF4F699380E48883C05FD040413096
:100F100009F4BFCF84EABECFDF91CF91089581E07D
:100F20008093D40508950F931F93CF93DF938C0183
:100F300000521F4FF8012081318103581040F80101
:100F400050810D551040E801CC59DF4FF901449113
:100F50002F5F3F4FF901749121503040C901029633
:100F6000FC01A591B491513069F4413081F5B8018B
:100F70006B597F4F065A1F4FF80140814A50065F58
:100F80001F4F11C05131A9F4413109F588818717EC
:100F900001F5B8016A597F4F065A1F4FF801408189
:100FA0004B50055F1F4FF8018081FD01099581E0DD
:100FB00014C0523160F0541751F4065A1F4FF80113
:100FC00040814950862F065F1F4FB801EECF442362
:100FD00019F02C5F3F4FBACF80E0DF91CF911F9186
:100FE0000F91089560E00E9493070895DB01119628
:100FF0009C91119786E7982711969C9311971296CA
:101000005C91129742E008C0FD01E20FF31F945279
:101010008081982790834F5F8C91242F30E0481770
:1010200098F3FD01E20FF31F8081852780830895E7
:10103000DB0111969C91119786E7892711968C9375
:10104000119742E009C0FD01E20FF31F8081945225
:10105000982790834F5F982F8C91242F30E048176A
:1010600090F3FD01E20FF31F808112969C91892776
:10107000808308950F931F93CF93DF938B01EC012F
:10108000CD5EDE4FCE016BE275E043E050E00E94A2
:10109000F002009751F0CE01B80143E050E00E9409
:1010A000F0029C0180E0232B09F481E0DF91CF91D5
:1010B0001F910F910895CF92DF92EF92FF920F93BD
:1010C0001F93CF93DF936B0100E010E01AC0CE01B5
:1010D0008F0D911D880F991F880F991F815D9A4F61
:1010E000B60143E050E00E94F0020097B9F0F3949B
:1010F000FE1468F30F5F1F4F0630110511F480E0F6
:101100000EC0F801EA52FE4FE080FF24E801CC0F48
:10111000DD1FC00FD11FCC0FDD1FEACF81E0DF91B3
:10112000CF911F910F91FF90EF90DF90CF90089596
:101130000F931F93CF93DF93615070E0FB01EA524E
:10114000FE4F008110E0EB01CC0FDD1FC60FD71F53
:10115000CC0FDD1F12C0CE01810F911D880F991F8A
:10116000880F991F815D9A4F6BE275E044E050E073
:101170000E94F002009721F01F5F101760F31FEF2D
:10118000812FDF91CF911F910F910895CF92DF9220
:10119000EF92FF920F931F93DF93CF9300D00F92A4
:1011A000CDB7DEB76A01DE011196ECEDF1E023E088
:1011B00001900D922150E1F7673088F56150862F3C
:1011C00090E0FC01EA52FE4FE080FF248C01000F0A
:1011D000111F080F191F000F111F11C0C8018F0D1B
:1011E000911D880F991F880F991F815D9A4FB60135
:1011F00044E050E00E94F002009799F0F394FE144E
:1012000068F3C601BE016F5F7F4F43E050E00E946C
:10121000F002009721F4F601F380FE1410F0FF2491
:10122000FA948F2D0F900F900F90CF91DF911F9117
:101230000F91FF90EF90DF90CF900895FF920F9362
:101240001F93CF93DF938C01F62EEA010E94C6080C
:101250008F3FB1F5C8016F2D0E949808482F8F3F2E
:1012600079F1095E1E4F8F2D90E001979C01220FAE
:10127000331F280F391F220F331F240F311D220F58
:10128000331F220F331F2E5F3F4FF8018081918162
:10129000820F931FBE0144E050E026EC36E00E942E
:1012A0003F03F801608171816E5F7F4F8FE295E0AF
:1012B00040E950E02EEB36E00E940D0381E001C0D2
:1012C00080E0DF91CF911F910F91FF900895DF9201
:1012D000EF92FF920F931F93CF93DF93F62ED42EAE
:1012E000F901E801208131814281538166E06F1567
:1012F00008F49FC0211531054105510521F422E074
:101300002D1508F496C0FF2019F4DD2069F091C076
:1013100062E06D1548F46F2DAF010E94C608A82F3A
:101320008F3F09F486C001C0A0E06F2D70E0FB0183
:10133000EE0FFF1FEE0FFF1FE60FF71FE555FD4FE6
:101340008181082F10E0C80133E0880F991F3A957A
:10135000E1F7801B910BFC01E153FD4F2081FC0163
:10136000E053FD4F90E0EE24FF240BC080818D15EB
:1013700019F4921748F05DC08181E80EF11C9F5F5F
:101380003396921798F355C0492F50E0CA01019641
:10139000FC01EE0FFF1FE80FF91F980193E0220FE9
:1013A000331F9A95E1F7201B310BE20FF31FE15336
:1013B000FD4F80818A17E8F1FA01EE0FFF1FE40F5D
:1013C000F51FE20FF31FE153FD4F2281A29FA02DD5
:1013D0001124FB01EE0FFF1FEE0FFF1FE60FF71F9B
:1013E000E555FD4F8481A80FAE0DA883B0E0AA0F8C
:1013F000BB1FAA0FBB1FAF51BE4F8D919C919B830A
:101400008A8329831C8220E00FC0E881F0E0E20F8C
:10141000F11DEE0FFF1FEE0FFF1FE152FE4F8C81FB
:101420009181890F8C832F5F8981281770F381E068
:1014300001C080E0DF91CF911F910F91FF90EF905D
:10144000DF900895DF92EF92FF920F931F93CF9357
:10145000DF937C01F901E8019091CE058091C505EB
:10146000891720F41092CE0580E098C00081118188
:10147000228133810093C6051093C7052093C805C8
:101480003093C9058091D005861789F48091CF05E6
:10149000841769F48091CA059091CB05A091CC0581
:1014A000B091CD0580179107A207B30711F01092F4
:1014B000CE056093D0054093CF050093CA051093E5
:1014C000CB052093CC053093CD05D090CE05DD2003
:1014D00089F4C7019F0101EC15E00E946709882388
:1014E00011F48FEF5BC08091C1059091C205890F07
:1014F0008093C2050091C10560E070E087E191E052
:10150000E80EF91E35C0783008F037C0E02FF0E063
:10151000EE0FFF1FEE0FFF1FAF0141525E4FDA01CA
:101520001C91D7012D913C912E563F4FEF51FE4F0C
:1015300080819181280F391FFA019181A90113C07F
:101540006F5FD61658F4FE011193F999FECF7F5FB5
:1015500052BD41BDF89A80B5EF018993783038F4D7
:101560001F5F4F5F5F4F842F821B891748F30F5F08
:101570008091C205081708F4C6CF972F6093CE0557
:101580008091C505681741F4783030F418821982CB
:101590006F5F6093CE059F5F892F880FDF91CF919A
:1015A0001F910F91FF90EF90DF900895DF92EF92DF
:1015B000FF920F931F93DF93CF9300D000D00F9231
:1015C000CDB7DEB77C01D62E9A0143E08E010F5FC6
:1015D0001F4F0E9467098823E9F0ED2DF0E0EE0F20
:1015E000FF1FEE0DFF1DE55EFE4F87E191E0E80E67
:1015F000F91ED7016D917C916E567F4F8B819C8136
:10160000680F791F4D818081918150E02EEB36E08B
:101610000E940D030F900F900F900F900F90CF919D
:10162000DF911F910F91FF90EF90DF9008952F921F
:101630003F924F925F926F927F929F92AF92BF9232
:10164000CF92DF92EF92FF920F931F93DF93CF938E
:10165000CDB7DEB729970FB6F894DEBF0FBECDBF6A
:101660007C018FEF89838A838B831C82C70160E0B2
:1016700040E02BE235E08E010B5F1F4F0E946709AF
:101680008701095E1E4FD8016D917C916E567F4F88
:101690008F819885680F791F4985C7018F5E9E4F9E
:1016A00050E02EEB36E00E940D03E9E1F1E0EE0E92
:1016B000FF1ED7016D907C90E7EEFEEFEE0EFF1E51
:1016C0009BE1C92E91E0D92ECE0CDF1C9924AA24CF
:1016D0001E010894211C311C28013DC0C7016A2D40
:1016E0004B2D91018E010B5F1F4F0E9467098823CC
:1016F00031F1F3E0BF1659F4E92DF0E0EE0FFF1FD2
:10170000E60DF71D80819181D6018D939C93E92D83
:10171000F0E0EE0FFF1FE60DF71DD2016D917C91F9
:101720006E567F4F8F819885680F791F498580811C
:10173000918150E02EEB36E00E940D039394B39418
:10174000B8E0BB1659F6A394E2E0F0E0CE0EDF1E3F
:10175000F7E0AF1611F0BB24C1CF29960FB6F8946D
:10176000DEBF0FBECDBFCF91DF911F910F91FF90D4
:10177000EF90DF90CF90BF90AF909F907F906F9051
:101780005F904F903F902F900895BF92CF92DF923D
:10179000EF92FF920F931F93CF93DF936B01CB01D7
:1017A0006BE275E044E050E00E94F002009759F1CE
:1017B000C0E0D0E01AC0C8018F0D911D880F991F9D
:1017C000880F991F815D9A4FB60144E050E00E9456
:1017D000F002009719F48B2D8F5F16C0F394FE145E
:1017E00050F32196C630D10571F0BC2EFE01EA52AD
:1017F000FE4FE080FF248E01000F111F0C0F1D1FF4
:10180000000F111FECCF80E0DF91CF911F910F915E
:10181000FF90EF90DF90CF90BF900895CF93DF932C
:10182000E9016730F0F4E62FF0E0EB52FE4F8081E3
:101830004817B8F46150E6E06E9FF0011124E40F00
:10184000F11DEE0FFF1FEE0FFF1FE15DFA4F8081CC
:101850009181A281B38188839983AA83BB8381E02C
:1018600001C080E0DF91CF910895CF92DF92FF9287
:101870000F931F93DF93CF9300D000D0CDB7DEB787
:101880008C01F62E6A0186E0861710F48FEF75C082
:10189000FA0180819181A281B38189839A83AB838C
:1018A000BC83C801AE014F5F5F4F0E94C608482F3E
:1018B0008F3F19F1095E1E4F8F2D90E001979C011B
:1018C000220F331F280F391F220F331F240F311D02
:1018D000220F331F220F331F2E5F3F4FF8018081ED
:1018E000918107511140820F931F6BE275E044E034
:1018F00050E026EC36E00E943F03F60184818C83A1
:10190000C8016F2DAE014F5F5F4F0E94C608482F80
:101910008F3F19F1095E1E4F8F2D90E001979C01BA
:10192000220F331F280F391F220F331F240F311DA1
:10193000220F331F220F331F2E5F3F4FF80180818C
:10194000918107511140820F931F6BE275E044E0D3
:1019500050E026EC36E00E943F03095E1E4FF8017E
:10196000608171816E5F7F4F8FE295E040E950E0CA
:101970002EEB36E00E940D0381E00F900F900F9048
:101980000F90CF91DF911F910F91FF90DF90CF903B
:101990000895AF92BF92CF92DF92FF920F931F9361
:1019A000DF93CF9300D000D0CDB7DEB76C01F62E19
:1019B0008A0186E0861710F48FEF1BC0FA01808140
:1019C0009181A281B38189839A83AB83BC83C60151
:1019D0005E010894A11CB11CA5010E941E09F8011A
:1019E0004481442331F04C83C6016F2DA5010E9430
:1019F0001E090F900F900F900F90CF91DF911F91C4
:101A00000F91FF90DF90CF90BF90AF900895CF924D
:101A1000DF92FF920F931F93DF93CF9300D000D0FC
:101A2000CDB7DEB78C01025A1F4FF801808191813A
:101A3000A281B38189839A83AB83BC830A5F1F4FE2
:101A4000F8018081045610408F708C83C8016E01AC
:101A50000894C11CD11CB6010E94C50BF82E882326
:101A600049F0C8016F2DA6010E94D60AC8016F2D4A
:101A70000E9493070F900F900F900F90CF91DF91DE
:101A80001F910F91FF90DF90CF900895CF93DF9338
:101A9000EC01FC01EE51FF4FC55ADF4F8881CB5559
:101AA000D0408083FE01EA51FF4FCC59DF4F88813F
:101AB000C456D0408083FE01E951FF4FC659DF4F25
:101AC0008881CA56D0408083FE01E851FF4FCA5931
:101AD000DF4F88819981AA81BB81C656D04080831F
:101AE0009183A283B383DE01AD51BF4FFE01E25A61
:101AF000FF4F83E001900D928150E1F7C451DF4F19
:101B000082E08883229681E08883DF91CF910895D7
:101B1000CF93DF93DC01FC01EE51FF4FA55ABF4F7D
:101B20008C91AB55B0408083FD01EA51FF4FAC5919
:101B3000BF4F8C91A456B0408083ED01CD51DF4F53
:101B4000FD01E25AFF4F83E0019009928150E1F7D5
:101B5000A451BF4F81E08C9312968C93DF91CF916B
:101B600008950F931F93CF93DF93EC01888DFE01AF
:101B7000EC5AFF4F85FF02C083E001C081E0808303
:101B8000888D90E0B4E095958795BA95E1F78170DE
:101B9000C75ADF4F8883C955D040CE014D9661EDBD
:101BA00075E043E050E00E94F0028E010D5A1F4F95
:101BB000009789F49E01265A3F4FEE89F0E0319656
:101BC000AE014A5E5F4FC901BA01AF010E94FD023A
:101BD000F801108203C081E0F8018083DF91CF918A
:101BE0001F910F910895CF92EF92FF920F931F9341
:101BF000CF93DF93EC015C2D575F5E8B59506F8B59
:101C0000488F298FDC015A96E1EDF5E083E00190E1
:101C10000D928150E1F7DE015D96F80183E00190BD
:101C20000D928150E1F79E01205E3F4FE216F306D0
:101C300031F0C901B701452F50E00E94FD02CE01ED
:101C40000E94B10DDF91CF911F910F91FF90EF9006
:101C5000CF900895CF92EF92FF920F931F93DF934F
:101C6000CF930F92CDB7DEB7FC0180E889838F0157
:101C7000025A1F4FCF01E55AFF4F608140E822E032
:101C80007E010894E11CF11CCC24C3940E94F30D46
:101C90000F90CF91DF911F910F91FF90EF90CF9018
:101CA0000895CF92EF92FF920F931F93DF93CF93FC
:101CB0000F92CDB7DEB7FC0119828C01025A1F4F7B
:101CC000E55AFF4F608140E822E07E010894E11C64
:101CD000F11CCC24C3940E94F30D0F90CF91DF919F
:101CE0001F910F91FF90EF90CF900895CF93DF93C6
:101CF000EC01C351DF4F1882CD5ED040CE010E946F
:101D0000170BCE010E94EB06C45ADF4F8881CC55D9
:101D1000D04085FF03C0CE010E94510EDF91CF91CC
:101D20000895CF93DF93EC01CC59DF4F6881229661
:101D3000AE010E94350C2A978881CC55D04085FF92
:101D400003C0CE010E94510EDF91CF910895CF9331
:101D5000DF93EC01CC59DF4F68812296AE010E94DF
:101D6000C90C2A978881CC55D04085FF03C0CE018D
:101D70000E94510EDF91CF910895CF92EF92FF9282
:101D80000F931F93CF93DF93EC01F62EE42EC22E18
:101D90008C010D5E1E4FC8016BE275E043E050E020
:101DA0000E94F002009759F186E088A3F9A2EAA206
:101DB000CBA28A818CA3C35ADF4F8881CD55D040F6
:101DC000813069F4CB59DF4F8881C556D0408E30C1
:101DD00031F4C55ADF4F6881CB55D04007C0FE01B2
:101DE000EE5AFF4F60816F5F60836150CE0144EA1D
:101DF00020E1A0967E0155E0C52E0E94F30DDF91F3
:101E0000CF911F910F91FF90EF90CF900895CF93B6
:101E1000DF93EC0160E00E949307882349F4CC59DA
:101E2000DF4F8FE193E068814FEF20E00E94BD0E0D
:101E3000DF91CF910895CF93DF93EC01FC01EA513C
:101E4000FF4FCC59DF4F8881C456D0408083FE01BC
:101E5000E851FF4FCA59DF4F88819981AA81BB8120
:101E6000C656D04080839183A283B383FE01E9519B
:101E7000FF4FC659DF4F88818083CD57DF4F81E008
:101E80008883C159D0408881CC55D04085FF03C09C
:101E9000CE010E94510EDF91CF910895CF93DF9331
:101EA000EA01673010F06FEF51C06150262F30E02B
:101EB000F901EA52FE4F70818091BF05781720F436
:101EC0001092BF0560E042C08091C005681711F014
:101ED0001092BF056093C00560E0A901440F551F33
:101EE000420F531F440F551F21C0FA01E20FF11D8D
:101EF000EE0FFF1FEE0FFF1FE15DFA4F8081918112
:101F0000A281B3812F5F0097A105B10569F02093ED
:101F1000BF05FE01E60FF11D80839183A283B38389
:101F20006C5F603118F012C02093BF052091BF058F
:101F30002717D8F2C60FD11D188219821A821B8268
:101F40008091BF058F5F8093BF056C5F862FDF9107
:101F5000CF9108952F923F924F925F926F927F920E
:101F60008F929F92AF92BF92CF92DF92EF92FF92A9
:101F70000F931F93DF93CF9300D000D000D0CDB745
:101F8000DEB75C013801EE824DB65EB68E010F5FA2
:101F90001F4F0E946709882309F468C08D812DB7FF
:101FA0003EB7281B31090FB6F8943EBF0FBE2DBFB8
:101FB000EDB6FEB60894E11CF11C698117017A8127
:101FC000760FA70130E017C0E62FF0E0EE0FFF1FFD
:101FD000EE0FFF1FE152FE4FA0819181FA0120E038
:101FE00004C0822F8A0F81932F5F2917D0F3390FF6
:101FF000490F511D6F5F671738F3332309F436C05B
:10200000CD808B809C80DD2487E191E0A80EB91EF5
:1020100028C083010D0D111DF8016081C10170E020
:102020004C2D50E00E94E3029C010097C1F0F501A5
:1020300080819181F8016181F999FECF1FBA8E5696
:102040009F4F280D391D2E193F09820F931F92BDF6
:1020500081BD60BD0FB6F894FA9AF99A0FBEF2E00E
:10206000DF0E2E81D216A8F281E001C080E00FB60B
:10207000F8945EBE0FBE4DBE26960FB6F894DEBF36
:102080000FBECDBFCF91DF911F910F91FF90EF90C9
:10209000DF90CF90BF90AF909F908F907F906F9088
:1020A0005F904F903F902F900895EF920F931F9362
:1020B000CF93DF93EC01C351DF4F8881CD5ED040D9
:1020C000882379F1CA51DF4F6881C258D040888196
:1020D000C456D040681729F5FE01E951FF4F9E0113
:1020E00028513F4F8E010A591F4FC65ADF4F588162
:1020F000CA55D0405B50CE014081E52E0E94AA0F08
:10210000982FC45ADF4F8881CC55D04085FF09C035
:10211000913021F4CE010E94510E03C0CE010E94E5
:102120002A0EDF91CF911F910F91EF9008958F921A
:102130009F92AF92BF92CF92DF92EF92FF920F9356
:102140001F93DF93CF93CDB7DEB729970FB6F894DF
:10215000DEBF0FBECDBF5C018DB69EB623E530E07D
:10216000A20EB31ED5018C91EDEAFFEFAE0EBF1E9D
:10217000882309F047C1D501AA5FBE4F2FEE30E09A
:10218000A20EB31EF501208141E15FEFA40EB51E42
:10219000E22FF0E0EB52FE4F9C918081981708F4FB
:1021A0006AC087E091E0A80EB91ED5018C91E9EFD5
:1021B000FEEFAE0EBF1E882361F5F501EE5AFF4F0C
:1021C00060816F5F6083615028E031E0A20EB31E32
:1021D000D5018C91E8EFFEEFAE0EBF1E85FD02C06B
:1021E00042E801C042EAF501E051FF4F85010D5E72
:1021F0001E4FD501AF50BF4F55E0C52E51E0D52E33
:10220000CA0CDB1CC50120817D01D601CC900E9447
:10221000F30DF501E85FFE4F908195FD1BC02FE0A7
:1022200031E0A20EB31ED5018C9121EF3EEFA20E3C
:10223000B31E882379F046E051E0A40EB51ED50107
:102240001D925D011C9229EF3EEFA20EB31E90621B
:10225000908311C046E051E0A40EB51ED5011D9239
:102260005D011C92E8E0F0E0AE0EBF1ED5011D92AC
:10227000FD011082C7C04FEEE42EF12CEA0CFB1CCE
:10228000F501EA5FFE4FC501D7016C9140818E01D7
:102290000F5F1F4F98010E940E0CC82EC8016BE201
:1022A00075E044E050E00E94F002009711F0CC206D
:1022B00029F4F501EA5FFE4F8081A2C0C501F70154
:1022C000608144E098018E010B5F1F4F0E946709F7
:1022D000882309F45BC0FDB6EEB689852DB73EB7FD
:1022E000281B31090FB6F8943EBF0FBE2DBF0DB7A6
:1022F0001EB70F5F1F4F6D81D8017E81760FA80139
:1023000016C0E62FF0E0EE0FFF1FEE0FFF1FE152A9
:10231000FE4F30819181FA0120E004C0822F830FAB
:1023200081932F5F2917D0F3490F511D6F5F6717F6
:1023300040F34985CD0161E070E050E00E94E30286
:102340009C010097D9F047E151E0A40EB51ED501DC
:102350008D919C91E9EEFEEFAE0EBF1E4F81588528
:10236000F999FECF8E569F4F240F351F201B310B3E
:10237000820F931F92BD81BDF89A40B58F2D9E2D7F
:102380009C010FB6F8943EBF0FBE2DBF842F90E086
:102390008170907024E0880F991F2A95E1F728E05A
:1023A00031E0A20EB31ED5014C91E8EFFEEFAE0E68
:1023B000BF1E482BF501EE5AFF4F60816F5F6083AF
:1023C0006150C50120EF30E0A20EB31ED5012C9163
:1023D0008E010F5F1F4F0894A11CB11C7501E4E131
:1023E000F0E0AE0EBF1ED501CC900E94F30DE2E0EE
:1023F000F0E0AE0EBF1E81E0D5018C93F501829115
:102400008F5F80830FB6F8949EBE0FBE8DBE299657
:102410000FB6F894DEBF0FBECDBFCF91DF911F91F5
:102420000F91FF90EF90DF90CF90BF90AF909F9073
:102430008F900895CF93DF93EC0180E090E06EEBF6
:1024400076E00E9429038F5A9740C9F080E090E01F
:10245000F999FECF1FBA92BD81BD10BC0FB6F8949A
:10246000FA9AF99A0FBE01968E3C910589F780E0A1
:1024700090E06FEA77E046EC56E00E945B03C95EAD
:10248000DE4F68817981C751D1406E5F7F4F8FE207
:1024900095E040E950E02EEB36E00E940D03CE01BE
:1024A0000E94170BDF91CF910895CF92EF92FF9288
:1024B0000F931F938C018A599F4F68EC73E04AE099
:1024C00050E00E94CD02892BE1F4E0E2EE2EF12CE7
:1024D000E00EF11EC70165EC73E041E150E00E949F
:1024E000DA02F801EE5AFF4F60816F5F608361503E
:1024F000C80142EA20E0025A1F4F71E1C72E0E9434
:10250000F30D1F910F91FF90EF90CF900895CF9210
:10251000EF92FF920F931F937C01DC0190961C9227
:10252000819668EC73E04BE050E00E94DA0287018C
:10253000025A1F4FF701B096C7012BE530E0E20EBB
:10254000F31ED7016C9140E820E17F01FBE0CF2E24
:102550000E94F30D1F910F91FF90EF90CF9008957F
:10256000CF93DF93EC016230A1F0633020F461304F
:1025700009F069C006C06330C9F1643009F063C076
:1025800048C0CC52DF4F6883C45DD04083B7817FA1
:102590002BC0CC52DF4F6883229688E99AE3899357
:1025A000999380ED97E0998388830E94122924965D
:1025B00066507F4F8F4F9F4F688379838A839B83B9
:1025C00084B7877F84BF80916000886180936000BA
:1025D00084E08093600080E091E09A938A93CA5DE2
:1025E000D04083B7817F846083BF32C084B7877F48
:1025F00084BF8091600088618093600081E2809355
:102600006000C652DF4F8EEF9FE199838883CA5DD9
:10261000D040CC52DF4F6883229688E99AE38993B1
:10262000999380ED97E0998388830E9412292496DC
:102630006056704F8F4F9F4F688379838A839B8347
:10264000CC5DD040CECFCC52DF4F1882C45DD0409D
:10265000CB52DF4F81E08883DF91CF910895EF92D5
:10266000FF920F931F93CF93DF93EC017A018B01BD
:10267000CB52DF4F8881C55DD040882319F4CE014D
:102680000E94AB22CB52DF4F81E088830E94122947
:1026900027966E0D7F1D801F911F688379838A8323
:1026A0009B83DF91CF911F910F91FF90EF90089541
:1026B000AF92BF92CF92DF92EF92FF920F931F9350
:1026C000CF93DF93EC01B4EDAB2EB12CA80EB91E65
:1026D000F5018081882309F423C1ACEDCA2ED12CE9
:1026E000CC0EDD1EF601E080F180028113810E9494
:1026F00012296E157F058007910708F411C1CD5A84
:10270000DF4F8881C355D040882309F009C1F50106
:1027100080818230F1F58E010B521F4FF8018081CC
:10272000882329F5CE010E94AB228823A1F00E94C4
:102730001229C852DF4F28813981C85DD04040E05E
:1027400050E0260F371F481F591FF60120833183A1
:102750004283538307C00E941229F601608371836C
:1027600082839383CB52DF4F81E08883D9C081304D
:1027700081F4CE010E94CC21F80110820E9412291E
:1027800066507F4F8F4F9F4FF60160837183828326
:102790009383CC52DF4F8881C45DD040833060F09A
:1027A0008E010B521F4FF8018081813029F4CE0138
:1027B0000E94CC21F80110828E010C521F4FF801AB
:1027C0008081823008F4ACC0CB52DF4F8881C55D78
:1027D000D040882309F0A4C0CE01049663E00E9493
:1027E0007320F80180818250823028F4809160004B
:1027F0008064809360008FE896E061E371E00E945E
:102800009527CC52DF4F8FE896E068814AE050E090
:102810000E9430278FE896E064E471E00E949527DB
:102820002896E880F9800A811B81CC5DD0400E9407
:10283000122920E030E06E157F058007910710F423
:1028400021E030E08FE896E0B9014AE050E00E94D4
:1028500082278FE896E06CE571E00E949527CD5ABB
:10286000DF4F8FE896E068814AE050E00E94302711
:102870008FE896E06AE00E94542662E370E080E010
:1028800090E00E94652910927A00909164008FEF89
:102890008093640083B7816083BF80E685BF80E456
:1028A00085BF889583B78E7F83BFCF57DF4F8881E1
:1028B000C45DD0408250823028F4809160008F7BCC
:1028C000809360009093640080912A058130E9F440
:1028D00010922A052091B9063091BA064091BB06A4
:1028E0005091BC06C652DF4F88819981A0E0B0E0CC
:1028F000820F931FA41FB51F8093B9069093BA0649
:10290000A093BB06B093BC060BC0C852DF4F4881F2
:102910005981C85DD04060E070E0CE010E942F1365
:10292000DF91CF911F910F91FF90EF90DF90CF90AB
:10293000BF90AF900895CF92EF92FF920F931F93A5
:10294000CF93DF93EC01CD5ADF4F8881C355D04040
:10295000882309F05AC083E293E061E044E021E07B
:102960000E94BD20C451DF4FF880CC5ED04081E092
:10297000F81659F4FE01EA51FF4FAE014F5D5F4F6B
:10298000CE0160810E944E0F14C0B2E0FB16E9F543
:10299000FE01EA51FF4FDE01A951BF4F9E012851B0
:1029A0003F4F8E010F5D1F4FCE0160814C910E9401
:1029B000220A382F882351F4CE018E519F4FFC01FB
:1029C0008DE0DF011D928A95E9F71FC0DE01AE514F
:1029D000BF4F8F3F41F48DE01D928A95E9F7CE01FC
:1029E0000E942A0E12C0F8A26C916F5F6C93615026
:1029F000FE01B0963F5FCE0140EA20E1CD51DF4FAE
:102A00008E017F01C32E0E94F30DDF91CF911F91A4
:102A10000F91FF90EF90CF9008950F931F93CF9356
:102A2000DF93EC018C010F591F4FC80161ED75E078
:102A300043E050E00E94F002FE01EE52FF4F00978B
:102A400019F481E0808301C01082C80160E070E069
:102A500043E050E00E94F002FE01ED52FF4F00976C
:102A600019F481E0808301C010828E01025A1F4F49
:102A7000CE01B8010E943A08882309F0E6C0CE01D1
:102A8000B8010E945B08882309F0DFC0DAC0FE01AC
:102A9000E856FF4F8081806480838E01065A1F4F65
:102AA000F801408150E04F5F5F4FCE018A569F4F43
:102AB000B8010E94F002009719F4F8011082CDC00D
:102AC000AE014A565F4FFE01E65AFF4F208130E0CB
:102AD0002F5F3F4FCA01BF01A9010E94FD02CE52E4
:102AE000DF4F8881C25DD040882309F44FC0C45AAB
:102AF000DF4F8881CC55D04087FF48C0C35ADF4F95
:102B00008881CD55D040813009F040C0CB59DF4F8E
:102B10008881C556D040813021F4CE010E94A70E95
:102B200035C0823021F4CE010E94910E2FC0833037
:102B300021F4CE010E94880D29C0843021F4CE01F9
:102B40000E94460D23C0853021F4CE010E941B0F48
:102B50001DC0863021F4CE010E94760E17C0883049
:102B600021F4CE010E94551011C0893021F4CE010C
:102B70000E9487120BC08A3021F4CE010E945512A8
:102B800005C08E3019F4CE010E94070FCE52DF4FE0
:102B90008881C25DD040882321F1C45ADF4F8881EB
:102BA000CC55D04087FF1DC0C35ADF4F8881CD551B
:102BB000D0408230B1F4CD5ADF4F1882C354DF4F7A
:102BC0008881C051D140813061F483E293E063E0B9
:102BD0000E94732083E293E061E043E021E00E94E1
:102BE000BD20CE52DF4F8881C25DD040882389F05E
:102BF000C45ADF4F8881CC55D04087FF0AC0C35AE2
:102C0000DF4F8881CD55D040813119F4CE010E942B
:102C1000F207CE52DF4F8881C25DD040882389F011
:102C2000C45ADF4F8881CC55D04087FF0AC0C35AB1
:102C3000DF4F8881CD55D040823118F0CE010E94FF
:102C4000070DC65ADF4F188208C0C45ADF4F88816B
:102C5000CC55D04086FD1BCF33CFDF91CF911F9154
:102C60000F910895CF92EF92FF920F931F93CF93FE
:102C7000DF93EC0183E293E062E043E020E00E9416
:102C8000BD20CC52DF4F8881C45DD040823058F0E7
:102C9000CA52DF4F48815981C65DD04060E070E084
:102CA000CE010E942F1340E2E42EF12CEC0EFD1E0B
:102CB000C70165EC73E041E150E00E94DA02FE01D9
:102CC000EE5AFF4F60816F5F60836150CE0142EA30
:102CD00020E0CD5EDE4F8E0131E1C32E0E94F30D68
:102CE000DF91CF911F910F91FF90EF90CF900895BA
:102CF0000F931F938C01FC01E95EFE4F808191814F
:102D00006BE275E042E050E026EC36E00E943F03C3
:102D1000C8010E941A12C801049662E044E025E04E
:102D20000E94BD201F910F910895AF92BF92CF9244
:102D3000DF92EF92FF920F931F93CF93DF93EC01FB
:102D4000E3E5CE2ED12CC80ED91ECC5ADF4FF601AA
:102D500090818881C455D040891708F472C075E508
:102D6000A72EB12CAC0EBD1EF501E080F1800281D2
:102D700013810E9412296E157F058007910708F4C0
:102D800060C08E010A5E1F4FCE01B8010E94F60797
:102D900080E00E94BB27FE01E75AFF4FCE01B80139
:102DA00040810E94D62280E06FE877E042E050E068
:102DB0000E949827CE01B8010E941808F601808170
:102DC0008F5F80830E94122964547D4F8F4F9F4FE5
:102DD000F5016083718382839383CB52DF4F81E05F
:102DE00088838A91C45DD0408823E9F0C452DF4FC4
:102DF000E880F9800A811B810E941229249728818A
:102E00003981C85DD04040E050E0620F731F841FDD
:102E1000951FE616F7060807190728F4CE01BA0130
:102E2000A9010E942F13C05FDE4F8881C051D1409D
:102E3000813039F483E293E063E043E021E00E94D3
:102E4000BD20FE01ED5AFF4F9081CC5ADF4F8881A3
:102E5000C455D040891758F4933048F41082CB5AA7
:102E6000DF4F188219821A821B82C555D04063E554
:102E7000A62EB12CAC0EBD1ECC5ADF4FF5019081B1
:102E80008881C455D040891748F555E5C52ED12C09
:102E9000CC0EDD1EF601E080F180028113810E94DC
:102EA00012296E157F0580079107C0F0F501108289
:102EB000F6011082118212821382C05FDE4F888178
:102EC000813061F483E293E063E00E94732083E247
:102ED00093E062E042E021E00E94BD20DF91CF91CB
:102EE0001F910F91FF90EF90DF90CF90BF90AF9028
:102EF000089580E00E94BB278FE193E069E773E0CB
:102F00000E941C22882331F08FE193E069E773E08F
:102F10000E94180880E06FE877E042E050E00E94ED
:102F200098270895CF93DF93EC018091D4058823EF
:102F300019F0CE010E947917C65ADF4F8881CA5511
:102F4000D040882319F0CE010E940D15CD5ADF4FD5
:102F50008881C355D040882319F0CE010E94951670
:102F6000C251DF4F8881CE5ED040882319F0CE0158
:102F70000E949B14C05FDE4F8881C051D1408823DE
:102F800019F0CE010E949710CE010E945813DF91D4
:102F9000CF9108952F923F924F925F927F928F929E
:102FA0009F92AF92BF92CF92DF92EF92FF920F93D8
:102FB0001F93DF93CF93CDB7DEB72D970FB6F8945D
:102FC000DEBF0FBECDBF4C01DE011696EDEDF2E087
:102FD00088E001900D928150E1F78FE896E065E579
:102FE00074E00E9431268FE896E062E070E04AE0EB
:102FF00050E00E941F278FE896E06EE474E00E9484
:1030000031268FE896E068E274E00E943126EE24D3
:10301000E6E0AE2EB12CAC0EBD1E6E010894C11CB4
:10302000D11C5BC0C4016E2D4F2D950186010E94FD
:103030006709882309F449C08FE896E06E2D4AE0BD
:1030400050E00E9430278FE896E069E00E94542605
:103050008FE896E06F2D4AE050E00E9430278FE81D
:1030600096E069E00E9454268FE896E069814AE084
:1030700050E00E9430278FE896E069E00E945426D5
:103080008FE896E06A814AE050E00E9430278FE89E
:1030900096E069E00E9454266B817C818FE896E07F
:1030A0004AE050E00E941F278FE896E069E00E9406
:1030B00054268FE896E06D814AE050E00E94302768
:1030C0008FE896E06AE00E945426F39484E1F816B3
:1030D00009F0A8CFE394E81611F0FF24A3CF8FE8FE
:1030E00096E061E174E00E9431268FE896E060E9A5
:1030F00070E04AE050E00E941F278FE896E06AE007
:1031000074E00E9431268FE896E069ED73E00E943A
:10311000312671EBA72E72E0B72E61E0C62ED12CBE
:103120005AE0452E512C4C0E5D1E1E010894211CA8
:10313000311C7C2CF5018081282F30E0C90143E04F
:10314000880F991F4A95E1F7821B930BFC01E1530D
:10315000FD4FE081DC01A053BD4F90E008C08C9191
:103160001396833019F49E1728F007C09F5F9E17AF
:10317000B0F303C003E0E02E01C0EE24D90113E058
:10318000AA0FBB1F1A95E1F7A21BB30BA053BD4FAB
:1031900090E00AC08C911396843029F49E1730F485
:1031A000F4E0EF2E06C09F5F9E17A0F3EE2009F417
:1031B0007FC0FF24C401672D4F2D92010E940E0C89
:1031C000882309F470C0F986C401672D4E2D9E0135
:1031D0002A5F3F4F81010E946709882309F463C079
:1031E0008FE896E0B6014AE050E00E9482278FE81F
:1031F00096E069E00E9454268FE896E06F2D4AE041
:1032000050E00E9430278FE896E069E00E94542643
:103210008FE896E069814AE050E00E9430278FE80D
:1032200096E069E00E9454268FE896E06A814AE0C1
:1032300050E00E9430278FE896E069E00E94542613
:103240006B817C818FE896E04AE050E00E941F2766
:103250008FE896E069E00E9454268FE896E06D8141
:103260004AE050E00E9430278FE896E069E00E9433
:1032700054268FE896E06E2D4AE050E00E943027F9
:103280008FE896E069E00E945426C20164E00E9443
:103290002520682F8FE896E00E9454268FE896E05C
:1032A0006AE00E945426F394F4E1FF1609F082CFFD
:1032B00085E090E0A80EB91E0894C11CD11C95E1D0
:1032C000A91693E0B90609F034CF8FE896E06AE0DA
:1032D0000E9454262D960FB6F894DEBF0FBECDBFC8
:1032E000CF91DF911F910F91FF90EF90DF90CF90E2
:1032F000BF90AF909F908F907F905F904F903F9046
:103300002F900895EF92FF920F931F93CF93DF9327
:103310007C018FE896E06DE671E00E949527C3E09E
:10332000D0E005EC13E0FE01E00FF11FE4918FE81F
:1033300096E06E2F0E9454262196CD30D10589F754
:103340008FE896E066E771E00E9495270F5F1F4FB8
:10335000F80184910E94F91F682F8FE896E00E947F
:1033600054268FE896E063E871E00E9495270F5F8E
:103370001F4FF8018491025010400E94F91F682FDE
:103380008FE896E00E9454268FE896E063E871E0AB
:103390000E9495278FE896E065E871E00E949527E6
:1033A00081ED95E063E00E942520682F8FE896E08C
:1033B0000E9454268FE896E06EE871E00E949527FF
:1033C0008FE896E060E971E00E949527C7018D5E65
:1033D0009E4F63E00E942520682F8FE896E00E94B0
:1033E00054268FE896E06EE871E00E949527F80178
:1033F000649170E0882777FD8095982F0E94942A29
:1034000020E030E040E251E40E94202B0E94612A3B
:103410007B018C018FE896E069E971E00E949527B5
:10342000C7016AE070E00E94A22BBC018FE896E021
:103430004AE050E00E9482278FE896E064EA71E05B
:103440000E949527C7016AE070E00E94A22B8FE8D6
:1034500096E04AE050E00E9482278FE896E06EE80E
:1034600071E00E949527DF91CF911F910F91FF90FE
:10347000EF9008950F931F938C010E945B23C80166
:103480000E941A12C80160E00E94B01264E670E067
:1034900080E090E00E94652980E06FE877E042E0FC
:1034A00050E00E94982781ED95E066ED73E043E0DF
:1034B00050E00E94DA021F910F910895CF93DF939D
:1034C000F894882319F440916B0009C0813019F4F5
:1034D00040916C0004C0823011F440916D0090E086
:1034E000FC01EE0FFF1FEB52FA4F01A4F2A5E02DF5
:1034F00020812423DC01AB52BA4F9F966C919F9799
:10350000622711F4789439C09F962C93582F442742
:10351000460F511DE6EDF5E0A0E0B0E0808191811D
:103520004817590721F5AA0FBB1FAB52BA4F559642
:10353000CD91DC91569740E0862F90E030E08223D9
:103540009323892B09F041E0440F88818D7F842BE0
:1035500088830E941229625E7F4F8F4F9F4F69833D
:103560007A838B839C8388818160888305C01196D0
:103570003296AA30B10591F67894DF91CF910895F3
:103580001F920F920FB60F9211242F933F934F93D8
:103590005F936F937F938F939F93AF93BF93EF93BB
:1035A000FF9382E00E945E1AFF91EF91BF91AF916D
:1035B0009F918F917F916F915F914F913F912F914B
:1035C0000F900FBE0F901F9018951F920F920FB67D
:1035D0000F9211242F933F934F935F936F937F9399
:1035E0008F939F93AF93BF93EF93FF9381E00E94DC
:1035F0005E1AFF91EF91BF91AF919F918F917F9153
:103600006F915F914F913F912F910F900FBE0F904F
:103610001F9018951F920F920FB60F9211242F939F
:103620003F934F935F936F937F938F939F93AF934A
:10363000BF93EF93FF9380E00E945E1AFF91EF919A
:10364000BF91AF919F918F917F916F915F914F91BA
:103650003F912F910F900FBE0F901F901895CF9212
:10366000DF92EF92FF920F931F93CF93DF93EC01C2
:10367000888180FF4FC1E980FA800B811C810E9404
:1036800012296E157F058007910708F443C18881D0
:1036900081FD0EC0888984FF0BC04989242F30E04A
:1036A0008F858F7090E02817390714F44F5F498B8E
:1036B0008EEF8B8B888186958170813009F045C0B3
:1036C000888982958F70282F217080FF66C0898934
:1036D000882371F08D819E81892B11F02B8B02C084
:1036E00086E08B8B88818E7F88838A898E7F8A8B08
:1036F0008A8980FF18C0E984FA8400E010E08C8990
:103700009D89AE89BF89E80EF91E0A1F1B1F0E9402
:1037100012296E157F058007910728F087E08B8BB3
:103720008A898E7F8A8B8A8980FFAAC00E9412298B
:1037300029853A8540E050E0260F371F481F591F62
:1037400029833A834B835C839BC0882319F588893E
:1037500084FF6CC00E9412296C8B7D8B8E8B9F8B9B
:103760002F81388540E050E0260F371F481F591F32
:1037700029833A834B835C832881922F990F990F79
:10378000990F907188898F7E892B888B216028837F
:103790008FEF75C0813009F047C0888984FD70C003
:1037A0008A8981FF05C08D7F8A8B84E08B8B12C054
:1037B00080FF08C082FD02C088E08B8B8A898B7FE6
:1037C0008A8B08C08D819E81892B21F48989813063
:1037D00009F41B8A8989882391F08D819E81892B28
:1037E00071F00E9412292D813E8140E050E0260FA9
:1037F000371F481F591F29833A834B835C838A896B
:103800008E7F8A8B988191609883990F990F990F79
:10381000907188898F7E892B888B0E9412296C8BEE
:103820007D8B8E8B9F8B2CC0882351F5888984FDDE
:1038300027C09A8991FF0CC00E94122966507F4FC1
:103840008F4F9F4F69837A838B839C8383E017C05C
:1038500090FF08C09D7F88818E7F888394609A8BBB
:1038600085E00DC093609A8B0E94122966507F4FAD
:103870008F4F9F4F69837A838B839C8382E08B8BEE
:103880008B898E3F09F446C0C980DA800E941229D4
:1038900022E330E0C20ED31EC61AD70A76010027F3
:1038A000F7FC0095102F888D998DAA8DBB8DE81699
:1038B000F9060A071B07D8F0E88EF98E0A8F1B8FCE
:1038C0008FE896E066EA71E00E9495278FE896E01F
:1038D000B6014AE050E00E9482278FE896E06AE055
:1038E0000E945426ED85FE85C801B7010995888997
:1038F000EB85FC858F706B89498909958B898130AF
:1039000021F0843011F0863029F4198A188E198E2E
:103910001A8E1B8EDF91CF911F910F91FF90EF9028
:10392000DF90CF900895CF93DF93CAEED5E08881E2
:103930009981009711F00E942F1B229685E0CE3FBF
:10394000D807A9F7DF91CF9108954F925F926F92B8
:103950007F928F929F92AF92BF92CF92DF92EF921F
:10396000FF920F931F93DF93CF93CDB7DEB73C0148
:10397000462E522E4F70DC011F968C911F97807F30
:10398000842B1F968C93822F62E00E94CD29F30135
:1039900016830583F086E782D286C186B486A38625
:1039A00096868586D30158961D921D921D921C9273
:1039B0005B97952D9295907F1F968C911F978F7096
:1039C000892B1F968C931F978C918E7F82608C938E
:1039D00050968C915097806150968C935097529648
:1039E0008C915297897F52968C93B5E1B51518F456
:1039F000E0E0F0E002C0E8E6F0E0908187E08515C5
:103A000010F084E006C0ADE0A51510F081E001C023
:103A100082E0892B8083B7E0B51518F06DE670E081
:103A20000EC0EDE0E51518F06BE670E008C0F5E1BA
:103A3000F51518F460E070E002C06CE670E0DB01A0
:103A40004C91B7E0B51548F081E090E0052C02C03C
:103A5000880F991F0A94E2F711C0252D30E0EDE0A0
:103A6000E51518F02850304002C02E50304081E05B
:103A700090E002C0880F991F2A95E2F7842BDB01A2
:103A80008C93452D50E0FA01EB5FFA4FE491E25040
:103A90000E2F10E0F801EE0FFF1FE150FB4FA59134
:103AA000B4918C91FB019081F801EB52FA4F89237C
:103AB00087A7F801EE0FFF1FEB52FA4FB2A7A1A79D
:103AC000E42DEF70D30150968C915097807F8E2B10
:103AD00050968C935097F0E0EE0FFF1FEB52FA4F89
:103AE000768A658A50968C918F70B7E0B51540F054
:103AF00021E030E002C0220F331F5A94E2F70FC0DA
:103B0000EDE0E51518F04850504002C04E505040CE
:103B100021E030E002C0220F331F4A95E2F7E82F80
:103B2000F0E0EE0FFF1FEB52FA4F902F8827280F7F
:103B3000391F32832183CF91DF911F910F91FF9025
:103B4000EF90DF90CF90BF90AF909F908F907F903D
:103B50006F905F904F900895DF93CF9300D0CDB7D3
:103B6000DEB72091D2013091D301CE01019621150B
:103B7000310519F4805C964002C0821B930B9A8336
:103B8000898389819A810F900F90CF91DF91089559
:103B9000CF93DF93AB01BC018EE480937C0086E879
:103BA00080937A00C0E0D0E020E030E080917A009D
:103BB000806480937A0080917A0086FDFCCF2A3061
:103BC000310534F08091780090917900C80FD91FA9
:103BD0002F5F3F4F2A34310549F780917A008F7764
:103BE00080937A00CB01BA012FEF33E040E050E040
:103BF0000E94832B56E0D695C7955A95E1F79E0112
:103C000040E050E00E94B52BC901DF91CF910895AB
:103C1000CF93DF93EC0104C08FE896E00E94542616
:103C2000FE01219664916623B9F78FE896E06AE079
:103C30000E945426DF91CF910895FF920F931F9316
:103C40008C01CB01F42EF801458120813181240FB4
:103C5000311DB9014F2D50E00E94FD02F801858110
:103C60008F0D8583C8011F910F91FF900895EF92EA
:103C7000FF920F931F93CF93DF93EC01EF85F889A9
:103C8000A081B18114962D913C911597CF01F90136
:103C90000995892B09F48CC1EF85F889A081B18140
:103CA00016962D913C911797CF01F9010995E82EB1
:103CB0008FE18E150CF056C19B818C81981708F00E
:103CC00051C18E81882389F1E2E2EE1629F5E8815F
:103CD000F981E90FF11D10829F5F9B83E881F981D3
:103CE0009C8191509C838B8181508B83DF01A90F34
:103CF000B11DE80FF11D80818C938B8190E0A0E0D5
:103D0000B0E029853A854B855C85281739074A0735
:103D10005B0720F3EC801E828B81E881F981E80F3C
:103D2000F11DE0828F5F8B8343C18F81882391F1E6
:103D30008E2D80538A3030F08151863018F08052B9
:103D4000863040F58885882321F419861A861B86DB
:103D50001C86F9E3FE1514F489E0E80E8E2D90E040
:103D6000A0E0B0E08F709070A070B07029853A85A7
:103D70004B855C8564E0220F331F441F551F6A95F5
:103D8000D1F7822B932BA42BB52B89879A87AB87EE
:103D9000BC8728C08E2D80538A3038F588858823CB
:103DA00021F419861A861B861C86FF24E7FCF094F2
:103DB000E0EDFFEFEE0EFF1E0027F7FC0095102F41
:103DC00069857A858B859C852AE030E040E050E06B
:103DD0000E94832BE60EF71E081F191FE986FA863C
:103DE0000B871C8781E08887E3C01F82FCE2EF1607
:103DF00009F45CC0FE155CF082E2E816A9F094E2DA
:103E0000E91679F0E0E2EE1609F05BC04BC0FEE285
:103E1000EF1661F1EF16B4F18AE3E81609F051C02C
:103E20000EC081E08F83C4C081E08E838B8190E0DF
:103E3000A0E0B0E089879A87AB87BC87B9C08B8147
:103E4000E881F981E80FF11D89859A859183808346
:103E50008B818E5F8B8389859A85AB85BC85CD01EF
:103E6000AA27BB2789879A87AB87BC878B81E88184
:103E7000F981E80FF11D89859A85918380838B8173
:103E80008E5F1CC089859A85AB85BC85B095A09551
:103E9000909581959F4FAF4FBF4F89879A87AB878A
:103EA000BC870DC08885882309F482C08B81E88196
:103EB000F981E80FF11D998590838F5F8B831886B8
:103EC00077C08885882381F08F8598896AE974E0B6
:103ED0000E9431268F8598896E2D0E9454268F85E9
:103EE00098890E945C263EC00D851E85F80184914C
:103EF000882309F442C0E81609F03CC00F5F1F4F49
:103F0000F801E490015010408B818E15A8F48F8544
:103F1000988963E874E00E9431268F8598896E2D18
:103F200070E04AE050E00E9482278F8598896CE714
:103F300074E00E947C2616C0EC81F0E090E0E81B63
:103F4000F90B28813981280F391FC90160E070E021
:103F5000AF010E940603C8010296FC01259134912D
:103F6000F90109951D821B8218861F821E828A8193
:103F70008C831EC00C5F1F4FB9CF8F8598896CE66C
:103F800074E00E9431260D851E85F801E4908F852E
:103F90009889EE2059F060E20E9454268F85988916
:103FA0006E2D0E9454260C5F1F4FEFCF0E945C269F
:103FB000DF91CF911F910F91FF90EF9008950F9394
:103FC0001F938C01862FF801628356874587308BBB
:103FD000278790E00E943728F8018083918315821B
:103FE0001382108617821682828184831F910F911B
:103FF0000895CF92DF92EF92FF920F931F93E82ED6
:10400000FF249FE8C92E96E0D92EF70184E0F595AC
:10401000E7958A95E1F705EE12E0E00FF11FC60182
:1040200060810E9454268FE0E822FF240E0D1F1DA0
:10403000C601F80160810E94542680E01F910F9113
:10404000FF90EF90DF90CF900895DF92EF92FF9274
:104050000F931F93CF93DF93D62E8C01C0E0D0E057
:10406000E62EFF2410C0F80180810E94F91F2196DE
:10407000CE15DF0534F48FE896E066EB71E00E9420
:1040800095270F5F1F4FCD1570F380E0DF91CF9123
:104090001F910F91FF90EF90DF900895EF92FF92A4
:1040A0000F931F93CF93DF938C01C62FD0E07C0139
:1040B000EC0EFD1EF701808160E00E940C2AF701E2
:1040C00012822296CC0FDD1FCC0FDD1FC00FD11F37
:1040D000188219821A821B82DF91CF911F910F9152
:1040E000FF90EF900895CF93DF93EC0160FF07C03E
:1040F00060E00E944E20CE0161E00E944E201C82B2
:104100001E821A821D821F821B82DF91CF91089529
:10411000EF92FF920F931F93CF93DF937C01C62FF3
:10412000D0E08C010C0F1D1FF801808161E00E941E
:104130000C2A81E0F80182832296CC0FDD1FCC0F80
:10414000DD1FCE0DDF1D188219821A821B82DF91BE
:10415000CF911F910F91FF90EF9008959C01FC016A
:10416000E60FF11D8281882321F0C9010E944E20B3
:104170000895C9010E9488200895FF920F931F930C
:10418000CF93DF93EC01042F30E0220F331FF22E88
:10419000162F60FF08C00C832E830E9412296887A7
:1041A00079878A879B8711FF08C00D83FF820E9451
:1041B00012296C877D878E879F87DF91CF911F9112
:1041C0000F91FF9008959F92AF92BF92CF92DF928E
:1041D000EF92FF920F931F93CF93DF936C015C01DB
:1041E000EC019924D5011896ED90FD900D911C914C
:1041F0001B97E114F1040105110509F498C00E9410
:1042000012296E157F058007910708F490C08C81F4
:10421000882329F4C601692D0E944E205CC081309C
:1042200029F4C601692D0E94882055C0823059F4B6
:10423000C601692D0E94AE200E941229685A7D4F46
:104240008F4F9F4F20C0833091F4C601692D0E948B
:10425000AE200E941229645D7E4F8F4F9F4FD50183
:1042600018966D937D938D939C931B9734C08430E7
:1042700081F4C601692D0E94AE200E9412296C595A
:104280007F4F8F4F9F4FF50160877187828793879C
:1042900022C0853001F58E81843008F01E82C6016F
:1042A000692D0E94AE200E941229AE81EA2FF0E013
:1042B000EE0FFF1FEB50FD4F2081318140E050E0B9
:1042C000260F371F481F591FF50120873187428766
:1042D0005387AF5FAE838C818250833040F58E81EF
:1042E000882329F181508E83882321F4C601692D0A
:1042F0000E944E208C81833029F46CE271E080E0D2
:1043000090E00BC0843029F464E670E080E090E037
:1043100004C068E572E080E090E06C597F4F8F4FF9
:104320009F4FD6015096ED91FC915197099593942A
:10433000E4E0F0E0AE0EBF1E2196F2E09F1609F019
:1043400051CFDF91CF911F910F91FF90EF90DF90B0
:10435000CF90BF90AF909F900895FF920F931F93BF
:104360008C01862FF42EF801318B208B608361E065
:104370000E94CD29C80160E00E944E20F801F18220
:104380008F2D61E00E94CD29C80161E00E944E207E
:104390001F910F91FF9008952A981C99FECF86E3F4
:1043A0008EBD0DB407FEFDCF8EB52A9A2A981C99B2
:1043B000FECF8AE38EBD0DB407FEFDCF8EB52A9ADF
:1043C0002A981C99FECF89E38EBD0DB407FEFDCF60
:1043D0008EB52A9A0895722F2A981C99FECF606490
:1043E0006EBD0DB407FEFDCF8EB5FA0190E008C09A
:1043F00080818EBD0DB407FEFDCF8EB59F5F3196D7
:104400009717B0F32A9A0895522F2A981C99FECF35
:10441000406C4EBD0DB407FEFDCF8EB5FB0190E0A4
:1044200007C01EBC0DB407FEFDCF8EB581939F5F04
:104430009517B8F32A9A08950F931F93CF93DF939C
:10444000EC018B012A981C99FECF8BEF8EBD0DB429
:1044500007FEFDCF8EB51EBC0DB407FEFDCF2EB5F9
:104460002A9A822F90E08F779070892B09F442C0AE
:1044700027FD40C02A981C99FECF8FEB8EBD0DB44E
:1044800007FEFDCF8EB51EBC0DB407FEFDCF2EB5C9
:104490002A9AF80120832D3370F5B8016F5F7F4FA2
:1044A000CE014FE30E9404222A981C99FECF8FEB85
:1044B0008EBD0DB407FEFDCF8EB51EBC0DB407FE3C
:1044C000FDCF8EB52A9A2A981C99FECF8FEB8EBD10
:1044D0000DB407FEFDCF8EB51EBC0DB407FEFDCF9B
:1044E0008EB52A9A982F9F779B83881F8827881FCD
:1044F000898302C0F80110822A981C99FECF8AE3B2
:104500008EBD0DB407FEFDCF8EB52A9A2A981C9950
:10451000FECF86E38EBD0DB407FEFDCF8EB52A9A81
:104520002A981C99FECF84E38EBD0DB407FEFDCF03
:104530008EB52A9A2A981C99FECF8CE38EBD0DB4B5
:1045400007FEFDCF8EB52A9AF8018081DF91CF91C9
:104550001F910F9108952A981C99FECF2A9A2A98A4
:104560001C99FECF84E38EBD0DB407FEFDCF8EB542
:104570002A9A63E070E080E090E00E9465292A9822
:104580001C99FECF88EF8EBD0DB407FEFDCF8EB512
:104590001EBC0DB407FEFDCF8EB52A9A90E026E032
:1045A000959587952A95E1F7817008950F931F934C
:1045B000CF93DF938C01EB012A981C99FECF86E301
:1045C0008EBD0DB407FEFDCF8EB52A9A2A981C9990
:1045D000FECF8AE38EBD0DB407FEFDCF8EB52A9ABD
:1045E0002A981C99FECF8BE38EBD0DB407FEFDCF3C
:1045F0008EB52A9A442379F02A981C99FECF85E338
:104600008EBD0DB407FEFDCF8EB52A9A68E671E027
:1046100080E090E004C061E070E080E090E00E9403
:10462000652928812F5FC8016FE3AE010E94EB214D
:104630002A981C99FECF8AE38EBD0DB407FEFDCFEC
:104640008EB52A9A2A981C99FECF85E38EBD0DB4AB
:1046500007FEFDCF8EB52A9A10E005EF2A981C9927
:10466000FECF0EBD0DB407FEFDCF8EB51EBC0DB442
:1046700007FEFDCF8EB52A9A8D30B9F02A981C9985
:10468000FECF0EBD0DB407FEFDCF8EB51EBC0DB422
:1046900007FEFDCF8EB52A9A833139F48AE090E087
:1046A0000E9420291F5F183CC9F681E0DF91CF915D
:1046B0001F910F9108951F938AE061E00E94CD2918
:1046C0008BE061E00E94CD298CE060E00E94CD2962
:1046D0008DE061E00E94CD2982E060E00E94CD295A
:1046E0008AE061E00E940C2A8DE061E00E940C2AC1
:1046F0008BE060E00E940C2A80E58CBD2A9A85E060
:1047000090E00E9420292A988AE090E00E942029C7
:104710002A9A89E290E00E9420292A981C99FECFCB
:1047200080E38EBD0DB407FEFDCF8EB52A9A6AE0F8
:1047300070E080E090E00E94652980E090E0FC015C
:10474000ED54FB4F2491FC01EC54FB4F34912A981B
:104750001C99FECF2EBD0DB407FEFDCF2EB53EBD7C
:104760000DB407FEFDCF2EB52A9A0296843391052B
:1047700031F72A981C99FECF83E38EBD0DB407FE56
:10478000FDCF8EB52A9A15EF04C081E090E00E941B
:1047900020292A981C99FECF1EBD0DB407FEFDCF1F
:1047A0008EB51EBC0DB407FEFDCF8EB52A9A8130A2
:1047B00061F72A981C99FECF8EE38EBD0DB407FEDB
:1047C000FDCF8EB580EC8EBD0DB407FEFDCF8EB54E
:1047D0002A9A2A981C99FECF84E38EBD0DB407FE59
:1047E000FDCF8EB52A9A2A981C99FECF8CE38EBDF8
:1047F0000DB407FEFDCF8EB52A9A1F910895089536
:104800001F920F920FB60F9211242F933F934F9345
:104810008F939F93EF93FF938091C00082FD1DC003
:104820004091C60020914706309148062F5F3F4FC8
:104830002F7330708091490690914A0628173907E6
:1048400071F0E0914706F0914806E95FF94F408327
:10485000309348062093470602C08091C600FF911E
:10486000EF919F918F914F913F912F910F900FBE9C
:104870000F901F901895E0919B06F0919C06E05CCC
:10488000FF4F8191919120813181821B930B8F7316
:104890009070892B11F00E94FF2308951F920F92B0
:1048A0000FB60F9211242F933F938F939F93EF9303
:1048B000FF9320918B0630918C0680918D0690910C
:1048C0008E062817390731F48091C1008F7D8093BF
:1048D000C10014C0E0918D06F0918E06E55BF94FA2
:1048E000208180918D0690918E0601968F73907035
:1048F00090938E0680938D062093C600FF91EF91D2
:104900009F918F913F912F910F900FBE0F901F900D
:104910001895AF92BF92DF92EF92FF920F931F9381
:10492000CF93DF93EC017A018B01DD24D39491E0E6
:10493000A92EB12CEC89FD89DD2069F0C50108A004
:1049400002C0880F991F0A94E2F7808360E874E838
:104950008EE190E005C0108260E472E48FE090E0A8
:10496000A80197010E94B52B215030404040504093
:10497000569547953795279580E12030380720F0E8
:10498000DD2011F0DD24D6CFE889F9893083EA896A
:10499000FB89208319A2EE89FF89408121E030E064
:1049A000C9010C8C02C0880F991F0A94E2F7482BAA
:1049B0004083EE89FF894081C9010D8C02C0880FB8
:1049C000991F0A94E2F7482B4083EE89FF894081C2
:1049D000C9010E8C02C0880F991F0A94E2F7482B78
:1049E0004083EE89FF8980810F8C02C0220F331F24
:1049F0000A94E2F7209528232083DF91CF911F911D
:104A00000F91FF90EF90DF90BF90AF900895DC0181
:104A10001C96ED91FC911D97E05CFF4F2191319127
:104A200080819181281B390B2F733070C901089543
:104A3000DC011C96ED91FC911D97E05CFF4F2081FD
:104A40003181E054F040DF01AE5BBF4F8D919C910E
:104A500011972817390719F42FEF3FEF07C08D91F1
:104A60009C91E80FF91F8081282F30E0C90108953B
:104A7000DC011C96ED91FC911D97E05CFF4F2081BD
:104A80003181E054F040DF01AE5BBF4F8D919C91CE
:104A900011972817390719F42FEF3FEF10C08D91A8
:104AA0009C911197E80FF91F20818D919C9111978E
:104AB00001968F73907011969C938E9330E0C9018C
:104AC0000895DC0191968C919197882339F0549642
:104AD000ED91FC915597808186FFF9CF91961C92BC
:104AE0000895CF93DF93EC01EE85FF85E05CFF4FE7
:104AF00020813181E054F0402F5F3F4F2F733070A1
:104B0000DF01AE5BBF4F8D919C911197281739073C
:104B1000D1F3E05CFF4F80819181E054F040E80FD9
:104B2000F91F6083EE85FF85E05CFF4F31832083B2
:104B3000EE89FF89208181E090E00F8C02C0880F10
:104B4000991F0A94E2F7282B208381E089A3EC893E
:104B5000FD8980818064808381E090E0DF91CF9146
:104B60000895109292061092910688EE93E0A0E0CC
:104B7000B0E08093930690939406A0939506B0932B
:104B8000960681E093E09093900680938F0687E0ED
:104B900096E090939C0680939B068BE496E090931E
:104BA0009E0680939D0685EC90E09093A0068093EE
:104BB0009F0684EC90E09093A2068093A10680EC7F
:104BC00090E09093A4068093A30681EC90E09093EC
:104BD000A6068093A50682EC90E09093A8068093A9
:104BE000A70686EC90E09093AA068093A90684E03D
:104BF0008093AB0683E08093AC0687E08093AD069C
:104C000085E08093AE0681E08093AF060895CF9251
:104C1000DF92EF92FF920F931F93CF93DF937C016C
:104C20006B018A01C0E0D0E00FC0D6016D916D012B
:104C3000D701ED91FC910190F081E02DC70109951C
:104C4000C80FD91F015010400115110571F7CE0191
:104C5000DF91CF911F910F91FF90EF90DF90CF9058
:104C60000895EF92FF920F931F93CF93DF937C01F0
:104C70008B01C0E0D0E0F8010F5F1F4F6491662305
:104C800059F0D701ED91FC910190F081E02DC70121
:104C90000995C80FD91FEFCFCE01DF91CF911F919A
:104CA0000F91FF90EF900895DC01ED91FC91019040
:104CB000F081E02D09950895EF92FF920F931F93D5
:104CC0008C01DC01ED91FC910190F081E02D6DE013
:104CD00009957C01D801ED91FC910190F081E02DC6
:104CE000C8016AE009959C012E0D3F1DC9011F9165
:104CF0000F91FF90EF900895EF92FF920F931F9303
:104D00007C010E9431268C01C7010E945C269C0117
:104D1000200F311FC9011F910F91FF90EF9008954F
:104D2000CF93DF93EC016115710519F420E030E0B9
:104D30000FC0DB010D900020E9F71197A61BB70B00
:104D4000E881F9810280F381E02DAD0109959C0194
:104D5000C901DF91CF9108954F925F927F928F9218
:104D60009F92AF92BF92CF92DF92EF92FF920F93FA
:104D70001F93DF93CF93CDB7DEB7A1970FB6F8940B
:104D8000DEBF0FBECDBF2C01742ECB01223008F444
:104D90002AE019A231E2C32ED12CCC0EDD1E822EC8
:104DA0009924AA24BB24672D752FA50194010E9484
:104DB000B52B79018A01C801B701A50194010E94B0
:104DC000832B472D461B0894C108D1084A3014F4A0
:104DD000405D01C0495CF6014083E114F104010526
:104DE000110521F07E2C5F2DC801DDCFC201B60177
:104DF0000E949026A1960FB6F894DEBF0FBECDBFDD
:104E0000CF91DF911F910F91FF90EF90DF90CF90A6
:104E1000BF90AF909F908F907F905F904F9008953C
:104E2000DC012115310541F4ED91FC910190F081F7
:104E3000E02D642F099508950E94AC260895EF9205
:104E4000FF920F931F939A017B0100E010E0B801DD
:104E5000A7010E9410271F910F91FF90EF900895D6
:104E6000EF92FF920F931F939A01E62EFF2400E02A
:104E700010E0B801A7010E9410271F910F91FF9029
:104E8000EF900895CF92DF92EF92FF920F931F93CE
:104E9000CF93DF93EC016A017B012115310541F4C9
:104EA000E881F9810190F081E02D642F09951FC000
:104EB0002A303105D1F477FF17C0E881F9810190DC
:104EC000F081E02D6DE209958C0144275527BA0148
:104ED0004C195D096E097F09CE012AE00E94AC26BB
:104EE0009801280F391F04C02AE00E94AC269C01BB
:104EF000C901DF91CF911F910F91FF90EF90DF904B
:104F0000CF900895EF92FF920F931F937B019A0128
:104F10000027F7FC0095102FB801A7010E94422737
:104F20001F910F91FF90EF9008950E949026089591
:104F3000823000F5E82FF0E0EE0FFF1FEF54F94F3D
:104F400071836083882319F08130A1F408C08091B7
:104F500069008C7F842B80936900E89A0895809182
:104F60006900440F551F440F551F837F842B809386
:104F70006900E99A0895823080F4882319F081301D
:104F800021F402C0E89801C0E998E82FF0E0EE0FA4
:104F9000FF1FEF54F94F1182108208951F920F9254
:104FA0000FB60F9211242F933F934F935F936F93FC
:104FB0007F938F939F93AF93BF93EF93FF938091D2
:104FC000B1069091B206892B29F0E091B106F091DB
:104FD000B2060995FF91EF91BF91AF919F918F918B
:104FE0007F916F915F914F913F912F910F900FBEE5
:104FF0000F901F9018951F920F920FB60F921124C9
:105000002F933F934F935F936F937F938F939F93D0
:10501000AF93BF93EF93FF938091B3069091B40643
:10502000892B29F0E091B306F091B4060995FF9120
:10503000EF91BF91AF919F918F917F916F915F9110
:105040004F913F912F910F900FBE0F901F90189589
:10505000CF93DF930E942A290E948B06CBE3D4E2F0
:105060000E9475062097E1F30E943B24F9CF0F932D
:105070001F93CF93DF93BC018230910510F462E05F
:1050800070E0E091BE06F091BF06A0E0B0E040E025
:1050900050E024C08081918186179707D0F0861751
:1050A000970771F482819381109729F013969C934E
:1050B0008E9312972CC09093BF068093BE0627C094
:1050C0004115510519F08417950718F4EF018D016A
:1050D000AC01DF01828193819C01F9013097D1F607
:1050E00041155105F9F0CA01861B970B84309105D3
:1050F00080F48A819B810115110521F0F8019383C9
:10510000828304C09093BF068093BE06FE01329650
:105110002FC0FE01E80FF91F6193719302979983E5
:10512000888326C08DB79EB7885790402091D201C2
:105130003091D30128173907C8F4AC01421B530B37
:105140004617570798F0CB0102964817590770F099
:10515000820F931F9093D3018093D2019093D50136
:105160008093D401F9016193719302C0E0E0F0E013
:10517000CF01DF91CF911F910F9108951F920F9250
:105180000FB60F9211242F933F934F935F936F931A
:105190007F938F939F93AF93BF932091B9063091E4
:1051A000BA064091BB065091BC067091BD06DA016B
:1051B000C9010296A11DB11D672F6A5F6D3730F0DE
:1051C0006D57DA01C9010396A11DB11D6093BD069B
:1051D0008093B9069093BA06A093BB06B093BC0621
:1051E0008091B5069091B606A091B706B091B80629
:1051F0000196A11DB11D8093B5069093B606A093AC
:10520000B706B093B806BF91AF919F918F917F91F0
:105210006F915F914F913F912F910F900FBE0F9023
:105220001F9018958FB7F8942091B9063091BA065F
:105230004091BB065091BC068FBFB901CA010895C9
:10524000019739F0019729F0880F991F019701976D
:10525000F1F70895789484B5826084BD84B5816047
:1052600084BD85B5826085BD85B5816085BDEEE66E
:10527000F0E0808181608083E1E8F0E0108280814D
:1052800082608083808181608083E0E8F0E08081BB
:1052900081608083E1EBF0E0808184608083E0EBDB
:1052A000F0E0808181608083EAE7F0E080818460C3
:1052B000808380818260808380818160808380811F
:1052C000806880831092C1000895EF92FF920F933F
:1052D0001F93CF93DF937B018C013FB7F8948091AC
:1052E000B5069091B606A091B706B091B80626B55E
:1052F000A89B05C02F3F19F00196A11DB11D3FBF0E
:10530000BA2FA92F982F8827820F911DA11DB11D9B
:1053100053E0880F991FAA1FBB1F5A95D1F7EC01C4
:1053200030C00E94602A3FB7F8948091B5069091F2
:10533000B606A091B706B091B80626B5A89B05C0E1
:105340002F3F19F00196A11DB11D3FBFBA2FA92F04
:10535000982F8827820F911DA11DB11D33E0880F62
:10536000991FAA1FBB1F3A95D1F78C1B9D0B885E16
:105370009340B8F20894E108F10801091109C851F5
:10538000DC4FE114F1040105110559F6DF91CF91CD
:105390001F910F91FF90EF900895CF93DF93482FC7
:1053A00050E0CA01875E9A4FFC0134914B5F5A4F1F
:1053B000FA018491882369F190E0880F991FFC011C
:1053C000E951FB4FA591B491FC01EF50FB4FC59102
:1053D000D491662351F42FB7F8948C91932F909524
:1053E00089238C93888189230BC0623061F42FB7A5
:1053F000F8948C91932F909589238C938881832B9B
:1054000088832FBF06C09FB7F8948C91832B8C9311
:105410009FBFDF91CF910895482F50E0CA01835D6F
:105420009A4FFC012491CA01875E9A4FFC01949126
:105430004B5F5A4FFA013491332309F440C02223C1
:1054400051F1233071F0243028F42130A1F02230C2
:1054500011F514C02630B1F02730C1F02430D9F452
:1054600004C0809180008F7703C0809180008F7D81
:105470008093800010C084B58F7702C084B58F7D83
:1054800084BD09C08091B0008F7703C08091B000C7
:105490008F7D8093B000E32FF0E0EE0FFF1FEF5001
:1054A000FB4FA591B4912FB7F894662321F48C910A
:1054B0009095892302C08C91892B8C932FBF0895DE
:1054C000089504D06894B111B5C0089598D088F0BB
:1054D0009F5790F0B92F9927B751A0F0D1F0660FE0
:1054E000771F881F991F1AF0BA95C9F712C0B130FB
:1054F00081F09FD0B1E008959CC0672F782F882756
:10550000B85F39F0B93FCCF3869577956795B39539
:10551000D9F73EF490958095709561957F4F8F4FA8
:105520009F4F0895E89409C097FB3EF490958095AD
:10553000709561957F4F8F4F9F4F9923A9F0F92F59
:1055400096E9BB279395F695879577956795B795D7
:10555000F111F8CFFAF4BB0F11F460FF1BC06F5FBD
:105560007F4F8F4F9F4F16C0882311F096E911C0CF
:10557000772321F09EE8872F762F05C0662371F0F0
:1055800096E8862F70E060E02AF09A95660F771F04
:10559000881FDAF7880F9695879597F9089597F9F8
:1055A0009F6780E870E060E008959FEF80EC0895C9
:1055B00000240A94161617061806090608950024F2
:1055C0000A9412161306140605060895092E03946C
:1055D000000C11F4882352F0BB0F40F4BF2B11F4E0
:1055E00060FF04C06F5F7F4F8F4F9F4F089557FD3F
:1055F0009058440F551F59F05F3F71F04795880F41
:1056000097FB991F61F09F3F79F0879508951216D7
:1056100013061406551FF2CF4695F1DF08C0161683
:1056200017061806991FF1CF869571056105089434
:105630000895E894BB2766277727CB0197F908954B
:105640000BD0C4CFB5DF28F0BADF18F0952309F0EE
:10565000A6CFABCF1124EECFCADFA0F3959FD1F335
:10566000950F50E0551F629FF001729FBB27F00D10
:10567000B11D639FAA27F00DB11DAA1F649F662765
:10568000B00DA11D661F829F2227B00DA11D621FB4
:10569000739FB00DA11D621F839FA00D611D221F6E
:1056A000749F3327A00D611D231F849F600D211D52
:1056B000822F762F6A2F11249F5750408AF0E1F0F5
:1056C00088234AF0EE0FFF1FBB1F661F771F881F3E
:1056D00091505040A9F79E3F510570F060CFAACF7E
:1056E0005F3FECF3983EDCF3869577956795B79529
:1056F000F795E7959F5FC1F7FE2B880F911D969553
:10570000879597F90895629FD001739FF001829F5A
:10571000E00DF11D649FE00DF11D929FF00D839F40
:10572000F00D749FF00D659FF00D9927729FB00DDD
:10573000E11DF91F639FB00DE11DF91FBD01CF01F0
:105740001124089597FB092E07260AD077FD04D06F
:105750002ED006D000201AF4709561957F4F0895E1
:10576000F6F7909581959F4F0895A1E21A2EAA1BF6
:10577000BB1BFD010DC0AA1FBB1FEE1FFF1FA21701
:10578000B307E407F50720F0A21BB30BE40BF50BFE
:10579000661F771F881F991F1A9469F76095709587
:1057A000809590959B01AC01BD01CF010895AA1B86
:1057B000BB1B51E107C0AA1FBB1FA617B70710F0FC
:1057C000A61BB70B881F991F5A95A9F7809590952E
:1057D000BC01CD010895EE0FFF1F0590F491E02D5F
:1057E00009942F923F924F925F926F927F928F9285
:1057F0009F92AF92BF92CF92DF92EF92FF920F9360
:105800001F93CF93DF93CDB7DEB7CA1BDB0B0FB669
:10581000F894DEBF0FBECDBF09942A883988488826
:105820005F846E847D848C849B84AA84B984C884BC
:10583000DF80EE80FD800C811B81AA81B981CE0FB3
:10584000D11D0FB6F894DEBF0FBECDBFED01089598
:04585000F894FFCFFA
:10585400627574746F6E2070726573732C20636E3E
:105864006C3A20002C206C6F6E6720707265737325
:105874003A2000693A002C20733A002C20723A2016
:1058840000536C6565702C20706F77722E6D6F6499
:10589400653A20002C20706F77722E6E7874544F06
:1058A4003E6D696C6C697328293A20002C2073655D
:1058B4006E642E636F756E7465723A200053657260
:1058C40069616C3A20002C204D6F64656C2049445A
:1058D4003A200020002C20484D49443A20000A0078
:1058E4005061697265643A20004669726D7761722D
:1058F400653A20002E00737461794177616B6554B9
:10590400696D653A200020000C0512051505160581
:1059140019051A051D051E0521052205250526055F
:105924002905C0066400060606060606FFFFFF01F9
:105934000200000A03020018010500040106000821
:105944000207000101090001010A0001010B000125
:10595400010C0001010D0001010E0004010F0008FB
:1059640002100001011200010113000101140001E1
:1059740001150001011600010117000401180008B7
:1059840002190001011B0001011C0001011D00019D
:10599400011E0001011F0001012000040121000873
:1059A4000222000101240001012500010126000159
:1059B400012700010128000101290004012A00082F
:1059C400022B0001012D0001012E0001012F000115
:1059D40001300001013100010132000401330008EB
:1059E40002340001013600010137000101380001D1
:1059F40001390001013A0001013B000701000000E8
:105A0400000006000300000F000B00001800130044
:105A14000021001B00002A0023000033002B000299
:105A240001020104010601000301000000FFFFFF61
:105A34000000000000303132333435363738394114
:105A440042434445463200C8003200E803000000E7
:0E5A5400007125072607253825182561250035
:00000001FF
